{
  "contractName": "Arrays",
  "abi": [
    {
      "constant": false,
      "inputs": [],
      "name": "testArrayOps",
      "outputs": [],
      "payable": false,
      "stateMutability": "nonpayable",
      "type": "function"
    }
  ],
  "bytecode": "0x6060604052606060405190810160405280600160ff168152602001600260ff168152602001600360ff16815250600090600361003c9291906100ab565b5060017f010000000000000000000000000000000000000000000000000000000000000002600660006101000a81548160ff02191690837f01000000000000000000000000000000000000000000000000000000000000009004021790555034156100a657600080fd5b610115565b82600381019282156100df579160200282015b828111156100de578251829060ff169055916020019190600101906100be565b5b5090506100ec91906100f0565b5090565b61011291905b8082111561010e5760008160009055506001016100f6565b5090565b90565b610506806101246000396000f300606060405260043610610041576000357c0100000000000000000000000000000000000000000000000000000000900463ffffffff1680639afdc46c14610046575b600080fd5b341561005157600080fd5b61005961005b565b005b61006361022c565b60086040518059106100725750595b908082528060200260200182016040525060049080519060200190610098929190610240565b50606060405190810160405280600160000b60000b8152602001600260000b8152602001600360000b81525060039060036100d49291906102e6565b50600360058190555060038054905060058190555060086040518059106100f85750595b9080825280602002602001820160405250905060606040519081016040528060017f0100000000000000000000000000000000000000000000000000000000000000027effffffffffffffffffffffffffffffffffffffffffffffffffffffffffffff19167effffffffffffffffffffffffffffffffffffffffffffffffffffffffffffff1916815260200160027f0100000000000000000000000000000000000000000000000000000000000000027effffffffffffffffffffffffffffffffffffffffffffffffffffffffffffff1916815260200160037f0100000000000000000000000000000000000000000000000000000000000000027effffffffffffffffffffffffffffffffffffffffffffffffffffffffffffff19168152506007906003610228929190610390565b5050565b602060405190810160405280600081525090565b82805482825590600052602060002090601f016020900481019282156102d55791602002820160005b838211156102a657835183826101000a81548160ff0219169083151502179055509260200192600101602081600001049283019260010302610269565b80156102d35782816101000a81549060ff02191690556001016020816000010492830192600103026102a6565b505b5090506102e2919061044a565b5090565b82805482825590600052602060002090601f0160209004810192821561037f5791602002820160005b8382111561035057835183826101000a81548160ff021916908360000b60ff160217905550926020019260010160208160000104928301926001030261030f565b801561037d5782816101000a81549060ff0219169055600101602081600001049283019260010302610350565b505b50905061038c919061047a565b5090565b826078601f016020900481019282156104395791602002820160005b8382111561040a57835183826101000a81548160ff02191690837f01000000000000000000000000000000000000000000000000000000000000009004021790555092602001926001016020816000010492830192600103026103ac565b80156104375782816101000a81549060ff021916905560010160208160000104928301926001030261040a565b505b50905061044691906104aa565b5090565b61047791905b8082111561047357600081816101000a81549060ff021916905550600101610450565b5090565b90565b6104a791905b808211156104a357600081816101000a81549060ff021916905550600101610480565b5090565b90565b6104d791905b808211156104d357600081816101000a81549060ff0219169055506001016104b0565b5090565b905600a165627a7a72305820ab29b24060d5789d045ac9e147fce425c48f174d9763e81c74abd0cc7458531e0029",
  "source": "pragma solidity ^0.4.4;\r\n\r\ncontract Arrays {\r\n\r\n    //elementary type array in storage \r\n    int[3] staticIntArray = [1,2,3];\r\n    int8[] dynamicIntArray;\r\n    bool[] dynamicBoolArray;\r\n    uint arrLen;\r\n\r\n    //Byte type strage\r\n    byte byteType = byte(1);\r\n\r\n    // Byte big array\r\n    byte[120] bigArray;\r\n\r\n    function testArrayOps() public {\r\n        // allocate memory of 8 elements to the dynamic bool array\r\n        dynamicBoolArray = new bool[](8);\r\n\r\n        // allocate memory and initialize memory in the dynamic int array\r\n       // below stmt throws an error because of uint vale assignments\r\n       // dynamicIntArray = [1,2,3];\r\n       // explicit conversion of uint to int8 avoids the error\r\n       // int8() conversion works only with the 1st element, when done on 2nd [1,int8(2),3] it throws an error\r\n        dynamicIntArray = [int8(1),2,3];\r\n\r\n        arrLen = staticIntArray.length;\r\n        arrLen = dynamicIntArray.length;\r\n\r\n        // declare a uint8 memory array\r\n        uint8[] memory memoryArray;\r\n        // below stmt doesn't work - assignment is not allowed for memory arrays\r\n        //memoryArray = [1,2,3];\r\n        // push is not allowed for a memory array as well\r\n        //memoryArray.push(2);\r\n        // allocate 8 elements to the memoryArray \r\n        memoryArray = new uint8[](8);\r\n\r\n        bigArray = [byte(1),2,3];\r\n    }\r\n}",
  "sourcePath": "C:\\inthra\\blockChain\\Demo-truffle\\contracts\\Arrays.sol",
  "compiler": {
    "name": "solc",
    "version": "0.4.19+commit.c4cbbb05.Emscripten.clang"
  },
  "schemaVersion": "1.0.1",
  "updatedAt": "2018-02-18T08:39:05.194Z"
}