{
  "contractName": "Calculator",
  "abi": [
    {
      "inputs": [
        {
          "name": "initial",
          "type": "uint256"
        }
      ],
      "payable": false,
      "stateMutability": "nonpayable",
      "type": "constructor"
    },
    {
      "constant": true,
      "inputs": [],
      "name": "getResult",
      "outputs": [
        {
          "name": "",
          "type": "uint256"
        }
      ],
      "payable": false,
      "stateMutability": "view",
      "type": "function"
    },
    {
      "constant": false,
      "inputs": [
        {
          "name": "num",
          "type": "uint256"
        }
      ],
      "name": "addToNumber",
      "outputs": [],
      "payable": false,
      "stateMutability": "nonpayable",
      "type": "function"
    },
    {
      "constant": false,
      "inputs": [
        {
          "name": "num",
          "type": "uint256"
        }
      ],
      "name": "subtractFromNumber",
      "outputs": [],
      "payable": false,
      "stateMutability": "nonpayable",
      "type": "function"
    },
    {
      "constant": false,
      "inputs": [
        {
          "name": "num",
          "type": "uint256"
        }
      ],
      "name": "multiplyWithNumber",
      "outputs": [],
      "payable": false,
      "stateMutability": "nonpayable",
      "type": "function"
    },
    {
      "constant": false,
      "inputs": [
        {
          "name": "num",
          "type": "uint256"
        }
      ],
      "name": "divideByNumber",
      "outputs": [],
      "payable": false,
      "stateMutability": "nonpayable",
      "type": "function"
    }
  ],
  "bytecode": "0x6060604052341561000f57600080fd5b6040516020806101df83398101604052808051906020019091905050806000819055505061019d806100426000396000f30060606040526004361061006d576000357c0100000000000000000000000000000000000000000000000000000000900463ffffffff16806306ccd23014610072578063a940160314610095578063b4679b06146100b8578063de292789146100db578063f5cb911d14610104575b600080fd5b341561007d57600080fd5b6100936004808035906020019091905050610127565b005b34156100a057600080fd5b6100b66004808035906020019091905050610135565b005b34156100c357600080fd5b6100d96004808035906020019091905050610143565b005b34156100e657600080fd5b6100ee610151565b6040518082815260200191505060405180910390f35b341561010f57600080fd5b610125600480803590602001909190505061015a565b005b806000540160008190555050565b806000540360008190555050565b806000540260008190555050565b60008054905090565b8060005481151561016757fe5b04600081905550505600a165627a7a72305820c2d47d58792fe8d0fb24cc2388a4e89c58b3f0dd1a4b7abe520044cff01205860029",
  "source": "pragma solidity ^0.4.4;\n\ncontract Calculator {\n\nuint result;\n\n\n  function Calculator(uint initial) {\n    // constructor\n    result = initial;\n  }\n\n  function getResult() constant returns (uint){\n    return result;\n  }\n\n  function addToNumber(uint num){\n    result = result + num;\n  }\n\n  function subtractFromNumber(uint num){\n    result = result - num;\n  }\n\n  function multiplyWithNumber(uint num){\n    result = result * num;\n  }\n\n  function divideByNumber(uint num){\n    result = result / num;\n  }\n}\n",
  "sourcePath": "C:\\inthra\\blockChain\\Demo-truffle\\contracts\\Calculator.sol",
  "compiler": {
    "name": "solc",
    "version": "0.4.19+commit.c4cbbb05.Emscripten.clang"
  },
  "schemaVersion": "1.0.1",
  "updatedAt": "2018-03-14T22:18:19.345Z"
}