{
  "contractName": "ContractFactory",
  "abi": [
    {
      "constant": true,
      "inputs": [],
      "name": "initialPrice",
      "outputs": [
        {
          "name": "",
          "type": "uint8"
        }
      ],
      "payable": false,
      "stateMutability": "view",
      "type": "function"
    },
    {
      "constant": true,
      "inputs": [
        {
          "name": "childIndex",
          "type": "uint8"
        }
      ],
      "name": "getOwnerName",
      "outputs": [
        {
          "name": "",
          "type": "bytes32"
        }
      ],
      "payable": false,
      "stateMutability": "view",
      "type": "function"
    },
    {
      "constant": true,
      "inputs": [],
      "name": "getChildrenCount",
      "outputs": [
        {
          "name": "",
          "type": "uint256"
        }
      ],
      "payable": false,
      "stateMutability": "view",
      "type": "function"
    },
    {
      "constant": false,
      "inputs": [
        {
          "name": "name",
          "type": "bytes32"
        }
      ],
      "name": "purchase",
      "outputs": [],
      "payable": true,
      "stateMutability": "payable",
      "type": "function"
    },
    {
      "constant": false,
      "inputs": [
        {
          "name": "childIndex",
          "type": "uint8"
        }
      ],
      "name": "childContractAddress",
      "outputs": [
        {
          "name": "",
          "type": "address"
        }
      ],
      "payable": false,
      "stateMutability": "nonpayable",
      "type": "function"
    },
    {
      "constant": true,
      "inputs": [
        {
          "name": "childIndex",
          "type": "uint8"
        }
      ],
      "name": "getInfo",
      "outputs": [
        {
          "name": "",
          "type": "uint8"
        },
        {
          "name": "",
          "type": "address"
        },
        {
          "name": "",
          "type": "bytes32"
        }
      ],
      "payable": false,
      "stateMutability": "view",
      "type": "function"
    },
    {
      "inputs": [
        {
          "name": "numParts",
          "type": "uint8"
        },
        {
          "name": "price",
          "type": "uint8"
        }
      ],
      "payable": false,
      "stateMutability": "nonpayable",
      "type": "constructor"
    }
  ],
  "bytecode": "0x6060604052341561000f57600080fd5b604051604080610e528339810160405280805190602001909190805190602001909190505060008090505b8260ff168160ff161015610142576000805480600101828161005c9190610165565b916000526020600020900160008330610073610191565b808360ff1660ff1681526020018273ffffffffffffffffffffffffffffffffffffffff1673ffffffffffffffffffffffffffffffffffffffff168152602001807f2a2a2a000000000000000000000000000000000000000000000000000000000081525060200192505050604051809103906000f08015156100f457600080fd5b909190916101000a81548173ffffffffffffffffffffffffffffffffffffffff021916908373ffffffffffffffffffffffffffffffffffffffff16021790555050808060010191505061003a565b81600160006101000a81548160ff021916908360ff1602179055505050506101c6565b81548183558181151161018c5781836000526020600020918201910161018b91906101a1565b5b505050565b604051610456806109fc83390190565b6101c391905b808211156101bf5760008160009055506001016101a7565b5090565b90565b610827806101d56000396000f300606060405260043610610078576000357c0100000000000000000000000000000000000000000000000000000000900463ffffffff1680631d0806ae1461007d57806329a81222146100ac5780635e6fc8b4146100ee578063cc44561114610117578063e3e24c9414610133578063e4d9de9414610199575b600080fd5b341561008857600080fd5b61009061021b565b604051808260ff1660ff16815260200191505060405180910390f35b34156100b757600080fd5b6100d0600480803560ff1690602001909190505061022e565b60405180826000191660001916815260200191505060405180910390f35b34156100f957600080fd5b610101610300565b6040518082815260200191505060405180910390f35b61013160048080356000191690602001909190505061030c565b005b341561013e57600080fd5b610157600480803560ff16906020019091905050610558565b604051808273ffffffffffffffffffffffffffffffffffffffff1673ffffffffffffffffffffffffffffffffffffffff16815260200191505060405180910390f35b34156101a457600080fd5b6101bd600480803560ff1690602001909190505061059e565b604051808460ff1660ff1681526020018373ffffffffffffffffffffffffffffffffffffffff1673ffffffffffffffffffffffffffffffffffffffff1681526020018260001916600019168152602001935050505060405180910390f35b600160009054906101000a900460ff1681565b60008060008360ff1681548110151561024357fe5b906000526020600020900160009054906101000a900473ffffffffffffffffffffffffffffffffffffffff1673ffffffffffffffffffffffffffffffffffffffff166306fdde036000604051602001526040518163ffffffff167c0100000000000000000000000000000000000000000000000000000000028152600401602060405180830381600087803b15156102da57600080fd5b6102c65a03f115156102eb57600080fd5b50505060405180519050905080915050919050565b60008080549050905090565b6000600160009054906101000a900460ff1660ff1634101561032d57600080fd5b600090505b6000805490508160ff16101561054f5760008160ff1681548110151561035457fe5b906000526020600020900160009054906101000a900473ffffffffffffffffffffffffffffffffffffffff1673ffffffffffffffffffffffffffffffffffffffff16632f54bf6e306000604051602001526040518263ffffffff167c0100000000000000000000000000000000000000000000000000000000028152600401808273ffffffffffffffffffffffffffffffffffffffff1673ffffffffffffffffffffffffffffffffffffffff168152602001915050602060405180830381600087803b151561042257600080fd5b6102c65a03f1151561043357600080fd5b50505060405180519050156105425760008160ff1681548110151561045457fe5b906000526020600020900160009054906101000a900473ffffffffffffffffffffffffffffffffffffffff1673ffffffffffffffffffffffffffffffffffffffff166389e6b5fb33846040518363ffffffff167c0100000000000000000000000000000000000000000000000000000000028152600401808373ffffffffffffffffffffffffffffffffffffffff1673ffffffffffffffffffffffffffffffffffffffff168152602001826000191660001916815260200192505050600060405180830381600087803b151561052957600080fd5b6102c65a03f1151561053a57600080fd5b505050610554565b8080600101915050610332565b600080fd5b5050565b6000808260ff1681548110151561056b57fe5b906000526020600020900160009054906101000a900473ffffffffffffffffffffffffffffffffffffffff169050919050565b6000806000808460ff168154811015156105b457fe5b906000526020600020900160009054906101000a900473ffffffffffffffffffffffffffffffffffffffff1673ffffffffffffffffffffffffffffffffffffffff16632c159a1a6000604051602001526040518163ffffffff167c0100000000000000000000000000000000000000000000000000000000028152600401602060405180830381600087803b151561064b57600080fd5b6102c65a03f1151561065c57600080fd5b5050506040518051905060008560ff1681548110151561067857fe5b906000526020600020900160009054906101000a900473ffffffffffffffffffffffffffffffffffffffff1673ffffffffffffffffffffffffffffffffffffffff16638da5cb5b6000604051602001526040518163ffffffff167c0100000000000000000000000000000000000000000000000000000000028152600401602060405180830381600087803b151561070f57600080fd5b6102c65a03f1151561072057600080fd5b5050506040518051905060008660ff1681548110151561073c57fe5b906000526020600020900160009054906101000a900473ffffffffffffffffffffffffffffffffffffffff1673ffffffffffffffffffffffffffffffffffffffff166306fdde036000604051602001526040518163ffffffff167c0100000000000000000000000000000000000000000000000000000000028152600401602060405180830381600087803b15156107d357600080fd5b6102c65a03f115156107e457600080fd5b5050506040518051905092509250925091939092505600a165627a7a723058206b47a64c34260c8d531ba792138195ebe5a3e0ea73e4f8c1aee048048bd5f06500296060604052341561000f57600080fd5b60405160608061045683398101604052808051906020019091908051906020019091908051906020019091905050826000806101000a81548160ff021916908360ff16021790555081600060016101000a81548173ffffffffffffffffffffffffffffffffffffffff021916908373ffffffffffffffffffffffffffffffffffffffff16021790555080600181600019169055505050506103a1806100b56000396000f30060606040526004361061006d576000357c0100000000000000000000000000000000000000000000000000000000900463ffffffff16806306fdde03146100725780632c159a1a146100a35780632f54bf6e146100d257806389e6b5fb146101235780638da5cb5b14610169575b600080fd5b341561007d57600080fd5b6100856101be565b60405180826000191660001916815260200191505060405180910390f35b34156100ae57600080fd5b6100b66101c4565b604051808260ff1660ff16815260200191505060405180910390f35b34156100dd57600080fd5b610109600480803573ffffffffffffffffffffffffffffffffffffffff169060200190919050506101d6565b604051808215151515815260200191505060405180910390f35b341561012e57600080fd5b610167600480803573ffffffffffffffffffffffffffffffffffffffff169060200190919080356000191690602001909190505061022f565b005b341561017457600080fd5b61017c61034f565b604051808273ffffffffffffffffffffffffffffffffffffffff1673ffffffffffffffffffffffffffffffffffffffff16815260200191505060405180910390f35b60015481565b6000809054906101000a900460ff1681565b60008060019054906101000a900473ffffffffffffffffffffffffffffffffffffffff1673ffffffffffffffffffffffffffffffffffffffff168273ffffffffffffffffffffffffffffffffffffffff16149050919050565b60008060019054906101000a900473ffffffffffffffffffffffffffffffffffffffff1673ffffffffffffffffffffffffffffffffffffffff163373ffffffffffffffffffffffffffffffffffffffff1614151561028c57600080fd5b600154905082600060016101000a81548173ffffffffffffffffffffffffffffffffffffffff021916908373ffffffffffffffffffffffffffffffffffffffff16021790555081600181600019169055507f5c621ab88898e6e9e72ba57f111357004c39d451619cf9004f8e0d90e1058cd66000809054906101000a900460ff1682600154604051808460ff1660ff16815260200183600019166000191681526020018260001916600019168152602001935050505060405180910390a1505050565b600060019054906101000a900473ffffffffffffffffffffffffffffffffffffffff16815600a165627a7a7230582070101641461eede81fe5fca1fef45128e01fc0462611f98d2d28f9889069a2130029",
  "source": "pragma solidity ^0.4.4;\r\n\r\ncontract ChildContract {\r\n\r\n    uint8 public identity;\r\n    address public owner;\r\n    bytes32 public name;\r\n\r\n    modifier OwnerOnly {if (msg.sender != owner) revert(); else _;}\r\n    event ChildOwnerTransfered(uint8 identity, bytes32 from, bytes32 to);\r\n\r\n    function ChildContract(uint8 id, address own, bytes32 nm){\r\n        identity = id;\r\n        owner = own;\r\n        name = nm;\r\n    }\r\n\r\n    function transferOwnership (address newOwner, bytes32 nm) OwnerOnly {\r\n        bytes32 former = name;\r\n        owner = newOwner;\r\n        name = nm;\r\n        ChildOwnerTransfered(identity, former, name);\r\n    }\r\n\r\n    function isOwner(address addr) returns (bool) {\r\n        return (addr == owner);\r\n    }\r\n}\r\n\r\n// This contract creates multiple contracts\r\ncontract ContractFactory {\r\n    ChildContract[] children;\r\n    uint8 public initialPrice;\r\n\r\n    function ContractFactory(uint8 numParts, uint8 price) {\r\n        for(uint8 i = 0; i < numParts; i++) {\r\n            children.push(new ChildContract(i, this, \"***\"));\r\n        }\r\n\r\n        initialPrice = price;\r\n    }\r\n\r\n    function purchase(bytes32 name) payable {\r\n        if (msg.value < initialPrice) revert();\r\n\r\n        for(uint8 i = 0; i < children.length; i++) {\r\n            if(children[i].isOwner(this)) {\r\n                children[i].transferOwnership(msg.sender, name);\r\n                return;\r\n            }\r\n        }\r\n\r\n        revert();\r\n    }\r\n\r\n    function getInfo(uint8 childIndex) constant returns (uint8, address, bytes32) {\r\n        return (children[childIndex].identity(),children[childIndex].owner(), children[childIndex].name());\r\n    }\r\n\r\n    function childContractAddress(uint8 childIndex) returns (address) {\r\n        return address(children[childIndex]);\r\n    }\r\n\r\n    function getOwnerName(uint8 childIndex) constant returns (bytes32) {\r\n        bytes32 namer = children[childIndex].name();\r\n        return namer;\r\n    }\r\n\r\n    function getChildrenCount() constant returns (uint) {\r\n        return children.length;\r\n    }\r\n\r\n}",
  "sourcePath": "C:\\inthra\\blockChain\\Demo-truffle\\contracts\\ContractFactory.sol",
  "compiler": {
    "name": "solc",
    "version": "0.4.19+commit.c4cbbb05.Emscripten.clang"
  },
  "schemaVersion": "1.0.1",
  "updatedAt": "2018-03-14T22:18:19.375Z"
}