{
  "contractName": "Events",
  "abi": [
    {
      "inputs": [],
      "payable": false,
      "stateMutability": "nonpayable",
      "type": "constructor"
    },
    {
      "anonymous": false,
      "inputs": [
        {
          "indexed": true,
          "name": "who",
          "type": "address"
        },
        {
          "indexed": false,
          "name": "name",
          "type": "string"
        },
        {
          "indexed": false,
          "name": "howMuch",
          "type": "uint256"
        }
      ],
      "name": "NewHighBid",
      "type": "event"
    },
    {
      "anonymous": false,
      "inputs": [
        {
          "indexed": true,
          "name": "who",
          "type": "address"
        },
        {
          "indexed": false,
          "name": "name",
          "type": "string"
        },
        {
          "indexed": false,
          "name": "howMuch",
          "type": "uint256"
        }
      ],
      "name": "BidFailed",
      "type": "event"
    },
    {
      "constant": false,
      "inputs": [
        {
          "name": "name",
          "type": "string"
        }
      ],
      "name": "bid",
      "outputs": [],
      "payable": true,
      "stateMutability": "payable",
      "type": "function"
    },
    {
      "constant": false,
      "inputs": [],
      "name": "getHighBidder",
      "outputs": [
        {
          "name": "name",
          "type": "string"
        }
      ],
      "payable": false,
      "stateMutability": "nonpayable",
      "type": "function"
    }
  ],
  "bytecode": "0x6060604052620697804201600055341561001857600080fd5b6103e86001600201819055506104ca806100336000396000f30060606040526004361061004c576000357c0100000000000000000000000000000000000000000000000000000000900463ffffffff1680637aef951c146100515780637d1184f0146100a3575b600080fd5b6100a1600480803590602001908201803590602001908080601f01602080910402602001604051908101604052809392919081815260200183838082843782019150505050505091905050610131565b005b34156100ae57600080fd5b6100b661033b565b6040518080602001828103825283818151815260200191508051906020019080838360005b838110156100f65780820151818401526020810190506100db565b50505050905090810190601f1680156101235780820380516001836020036101000a031916815260200191505b509250505060405180910390f35b60005442101561033357600a600160020154013411156102725733600160000160006101000a81548173ffffffffffffffffffffffffffffffffffffffff021916908373ffffffffffffffffffffffffffffffffffffffff160217905550806001800190805190602001906101a79291906103e5565b50346001600201819055503373ffffffffffffffffffffffffffffffffffffffff167fd7f5ff45ff6e232308acbf841d8134c8c65dd893722727b64eef24b489fb893d82346040518080602001838152602001828103825284818151815260200191508051906020019080838360005b83811015610232578082015181840152602081019050610217565b50505050905090810190601f16801561025f5780820380516001836020036101000a031916815260200191505b50935050505060405180910390a261032e565b3373ffffffffffffffffffffffffffffffffffffffff167faab6e917b2089e850050512474058e20b2f6dfb93b76ac38d1921588535627d282346040518080602001838152602001828103825284818151815260200191508051906020019080838360005b838110156102f25780820151818401526020810190506102d7565b50505050905090810190601f16801561031f5780820380516001836020036101000a031916815260200191505b50935050505060405180910390a25b610338565b600080fd5b50565b610343610465565b600180018054600181600116156101000203166002900480601f0160208091040260200160405190810160405280929190818152602001828054600181600116156101000203166002900480156103db5780601f106103b0576101008083540402835291602001916103db565b820191906000526020600020905b8154815290600101906020018083116103be57829003601f168201915b5050505050905090565b828054600181600116156101000203166002900490600052602060002090601f016020900481019282601f1061042657805160ff1916838001178555610454565b82800160010185558215610454579182015b82811115610453578251825591602001919060010190610438565b5b5090506104619190610479565b5090565b602060405190810160405280600081525090565b61049b91905b8082111561049757600081600090555060010161047f565b5090565b905600a165627a7a7230582017b1257c30300f90aa876931d995047178134b3f5e6f4f07e44ccf972cfaf3d00029",
  "source": "pragma solidity ^0.4.4;\r\n\r\ncontract Events {\r\n    uint biddingEnds = now + 5 days;\r\n\r\n    struct HighBidder {\r\n        address bidder;\r\n        string name;\r\n        uint bid;\r\n    }\r\n\r\n    HighBidder highBidder;\r\n\r\n    event NewHighBid(address indexed who, string name, uint howMuch);\r\n\r\n    event BidFailed(address indexed who, string name, uint howMuch);\r\n\r\n    modifier timed {\r\n        if (now < biddingEnds) {\r\n            _;\r\n        } else {\r\n            revert();\r\n        }\r\n    }\r\n\r\n    function Events() {\r\n        highBidder.bid = 1000;\r\n    }\r\n\r\n    function bid(string name) payable timed {\r\n        if (msg.value > highBidder.bid + 10) {\r\n\r\n            //returnBidToLoser();\r\n\r\n            highBidder.bidder = msg.sender;\r\n            highBidder.name = name;\r\n            highBidder.bid = msg.value;\r\n\r\n            NewHighBid(msg.sender, name, msg.value);\r\n        } else {\r\n           BidFailed(msg.sender, name, msg.value);\r\n        //    revert();\r\n            //throw;\r\n        }\r\n    }\r\n\r\n    function getHighBidder() returns (string name) {\r\n        name = highBidder.name;\r\n    }\r\n\r\n    function returnBidToLoser() private {\r\n\r\n    }\r\n}",
  "sourcePath": "C:\\inthra\\blockChain\\Demo-truffle\\contracts\\Events.sol",
  "compiler": {
    "name": "solc",
    "version": "0.4.19+commit.c4cbbb05.Emscripten.clang"
  },
  "schemaVersion": "1.0.1",
  "updatedAt": "2018-03-14T22:18:19.379Z"
}