{
  "contractName": "FuncTypesCaller",
  "abi": [
    {
      "constant": false,
      "inputs": [
        {
          "name": "funcTypesAddr",
          "type": "address"
        },
        {
          "name": "str",
          "type": "string"
        }
      ],
      "name": "callExternal",
      "outputs": [
        {
          "name": "",
          "type": "uint256"
        }
      ],
      "payable": false,
      "stateMutability": "nonpayable",
      "type": "function"
    }
  ],
  "bytecode": "0x6060604052341561000f57600080fd5b6102088061001e6000396000f300606060405260043610610041576000357c0100000000000000000000000000000000000000000000000000000000900463ffffffff16806310725fe014610046575b600080fd5b341561005157600080fd5b6100c0600480803573ffffffffffffffffffffffffffffffffffffffff1690602001909190803590602001908201803590602001908080601f016020809104026020016040519081016040528093929190818152602001838380828437820191505050505050919050506100d6565b6040518082815260200191505060405180910390f35b6000808390508073ffffffffffffffffffffffffffffffffffffffff16630d35b473846000604051602001526040518263ffffffff167c01000000000000000000000000000000000000000000000000000000000281526004018080602001828103825283818151815260200191508051906020019080838360005b8381101561016d578082015181840152602081019050610152565b50505050905090810190601f16801561019a5780820380516001836020036101000a031916815260200191505b5092505050602060405180830381600087803b15156101b857600080fd5b6102c65a03f115156101c957600080fd5b50505060405180519050915050929150505600a165627a7a72305820f71d7844c396a63adf2dbb012d0998516c0828b45e5597d936d23e21097e1a690029",
  "source": "pragma solidity ^0.4.4;\r\n\r\nimport \"./FuncTypes.sol\";\r\n\r\ncontract FuncTypesCaller {\r\n    function callExternal(address funcTypesAddr, string str) public returns(uint){\r\n        FuncTypes funcTypes = FuncTypes(funcTypesAddr);\r\n        return funcTypes.indirectCall(str);\r\n    }\r\n}",
  "sourcePath": "C:\\inthra\\blockChain\\Demo-truffle\\contracts\\FuncTypesCaller.sol",
  "compiler": {
    "name": "solc",
    "version": "0.4.19+commit.c4cbbb05.Emscripten.clang"
  },
  "schemaVersion": "1.0.1",
  "updatedAt": "2018-03-14T22:18:19.391Z"
}