{
  "contractName": "FuncTypes",
  "abi": [
    {
      "inputs": [],
      "payable": false,
      "stateMutability": "nonpayable",
      "type": "constructor"
    },
    {
      "constant": false,
      "inputs": [
        {
          "name": "data",
          "type": "string"
        }
      ],
      "name": "indirectCall",
      "outputs": [
        {
          "name": "len",
          "type": "uint256"
        }
      ],
      "payable": false,
      "stateMutability": "nonpayable",
      "type": "function"
    }
  ],
  "bytecode": "0x6060604052341561000f57600080fd5b61004a640100000000026100dd17600160006101000a81548167ffffffffffffffff021916908367ffffffffffffffff160217905550610055565b600081519050919050565b610114806100646000396000f300606060405260043610603f576000357c0100000000000000000000000000000000000000000000000000000000900463ffffffff1680630d35b473146044575b600080fd5b3415604e57600080fd5b609c600480803590602001908201803590602001908080601f0160208091040260200160405190810160405280939291908181526020018383808284378201915050505050509190505060b2565b6040518082815260200191505060405180910390f35b600060d682600160009054906101000a900467ffffffffffffffff1663ffffffff16565b9050919050565b6000815190509190505600a165627a7a7230582019f619cb9e12dfaae1d0a80a3a78f728eb4adc67d20abdfd436081d3662a23750029",
  "source": "pragma solidity ^0.4.4;\r\n\r\ncontract FuncTypes {\r\n    bytes private secret;\r\n\r\n    //reference to an internal function\r\n    function(string memory) internal returns(uint) lengthFunctionVar;\r\n\r\n    //constructor\r\n    function FuncTypes(){\r\n        lengthFunctionVar = actualLengthFunction;\r\n    }\r\n\r\n    // This function should NOT be available for calls outside the contract context\r\n    function actualLengthFunction(string memory str) private returns(uint len){\r\n        len = bytes(str).length;\r\n    }\r\n\r\n    function indirectCall(string data) public returns(uint len){\r\n        len = lengthFunctionVar(data);\r\n    }\r\n\r\n}",
  "sourcePath": "C:\\inthra\\blockChain\\Demo-truffle\\contracts\\FuncTypes.sol",
  "compiler": {
    "name": "solc",
    "version": "0.4.19+commit.c4cbbb05.Emscripten.clang"
  },
  "schemaVersion": "1.0.1",
  "updatedAt": "2018-03-14T22:18:19.349Z"
}