{
  "contractName": "MappingEnumStruct",
  "abi": [
    {
      "constant": false,
      "inputs": [
        {
          "name": "nm",
          "type": "bytes32"
        },
        {
          "name": "cont",
          "type": "uint8"
        },
        {
          "name": "pop",
          "type": "uint16"
        }
      ],
      "name": "addEuropeanCountry",
      "outputs": [
        {
          "name": "",
          "type": "bool"
        }
      ],
      "payable": false,
      "stateMutability": "nonpayable",
      "type": "function"
    },
    {
      "constant": false,
      "inputs": [
        {
          "name": "name",
          "type": "bytes32"
        }
      ],
      "name": "getEuropeanCountry",
      "outputs": [
        {
          "name": "",
          "type": "bytes32"
        },
        {
          "name": "",
          "type": "uint8"
        },
        {
          "name": "",
          "type": "uint16"
        }
      ],
      "payable": false,
      "stateMutability": "nonpayable",
      "type": "function"
    },
    {
      "constant": false,
      "inputs": [
        {
          "name": "country",
          "type": "string"
        },
        {
          "name": "capital",
          "type": "string"
        }
      ],
      "name": "addCapital",
      "outputs": [],
      "payable": false,
      "stateMutability": "nonpayable",
      "type": "function"
    },
    {
      "constant": false,
      "inputs": [
        {
          "name": "country",
          "type": "string"
        }
      ],
      "name": "getCapital",
      "outputs": [
        {
          "name": "",
          "type": "string"
        }
      ],
      "payable": false,
      "stateMutability": "nonpayable",
      "type": "function"
    },
    {
      "constant": false,
      "inputs": [
        {
          "name": "country",
          "type": "string"
        }
      ],
      "name": "removeCapital",
      "outputs": [],
      "payable": false,
      "stateMutability": "nonpayable",
      "type": "function"
    },
    {
      "constant": false,
      "inputs": [
        {
          "name": "arg",
          "type": "uint256"
        }
      ],
      "name": "getContinent",
      "outputs": [
        {
          "name": "",
          "type": "string"
        }
      ],
      "payable": false,
      "stateMutability": "nonpayable",
      "type": "function"
    }
  ],
  "bytecode": "0x6060604052341561000f57600080fd5b610bf48061001e6000396000f300606060405260043610610078576000357c0100000000000000000000000000000000000000000000000000000000900463ffffffff168063418db3871461007d57806342024a4a14610153578063665d0509146101ab578063a28bbb3d14610247578063b4f9f621146102a4578063e8eb2ed914610344575b600080fd5b341561008857600080fd5b6100d8600480803590602001908201803590602001908080601f016020809104026020016040519081016040528093929190818152602001838380828437820191505050505050919050506103a3565b6040518080602001828103825283818151815260200191508051906020019080838360005b838110156101185780820151818401526020810190506100fd565b50505050905090810190601f1680156101455780820380516001836020036101000a031916815260200191505b509250505060405180910390f35b341561015e57600080fd5b61019160048080356000191690602001909190803560ff1690602001909190803561ffff169060200190919050506104b6565b604051808215151515815260200191505060405180910390f35b34156101b657600080fd5b6101cc60048080359060200190919050506105b9565b6040518080602001828103825283818151815260200191508051906020019080838360005b8381101561020c5780820151818401526020810190506101f1565b50505050905090810190601f1680156102395780820380516001836020036101000a031916815260200191505b509250505060405180910390f35b341561025257600080fd5b6102a2600480803590602001908201803590602001908080601f01602080910402602001604051908101604052809392919081815260200183838082843782019150505050505091905050610812565b005b34156102af57600080fd5b610342600480803590602001908201803590602001908080601f0160208091040260200160405190810160405280939291908181526020018383808284378201915050505050509190803590602001908201803590602001908080601f0160208091040260200160405190810160405280939291908181526020018383808284378201915050505050509190505061088c565b005b341561034f57600080fd5b610369600480803560001916906020019091905050610910565b6040518084600019166000191681526020018360ff1660ff1681526020018261ffff1661ffff168152602001935050505060405180910390f35b6103ab610a11565b6000826040518082805190602001908083835b6020831015156103e357805182526020820191506020810190506020830392506103be565b6001836020036101000a03801982511681845116808217855250505050505090500191505090815260200160405180910390208054600181600116156101000203166002900480601f0160208091040260200160405190810160405280929190818152602001828054600181600116156101000203166002900480156104aa5780601f1061047f576101008083540402835291602001916104aa565b820191906000526020600020905b81548152906001019060200180831161048d57829003601f168201915b50505050509050919050565b60006104c0610a25565b600460068111156104cd57fe5b60ff168460ff161415156104e457600091506105b1565b606060405190810160405280866000191681526020018560ff16600681111561050957fe5b600681111561051457fe5b81526020018461ffff168152509050600180548060010182816105379190610a59565b916000526020600020906002020160008390919091506000820151816000019060001916905560208201518160010160006101000a81548160ff0219169083600681111561058157fe5b021790555060408201518160010160016101000a81548161ffff021916908361ffff160217905550505050600191505b509392505050565b6105c1610a11565b600060068111156105ce57fe5b60ff16821415610615576040805190810160405280600681526020017f4166726963610000000000000000000000000000000000000000000000000000815250905061080d565b6001600681111561062257fe5b60ff16821415610669576040805190810160405280600981526020017f416e746172746963610000000000000000000000000000000000000000000000815250905061080d565b6002600681111561067657fe5b60ff168214156106bd576040805190810160405280600481526020017f4173696100000000000000000000000000000000000000000000000000000000815250905061080d565b600360068111156106ca57fe5b60ff16821415610711576040805190810160405280600981526020017f4175737472616c69610000000000000000000000000000000000000000000000815250905061080d565b6004600681111561071e57fe5b60ff16821415610765576040805190810160405280600681526020017f4575726f70650000000000000000000000000000000000000000000000000000815250905061080d565b6005600681111561077257fe5b60ff168214156107b9576040805190810160405280600d81526020017f4e6f7274685f416d657269636100000000000000000000000000000000000000815250905061080d565b6006808111156107c557fe5b60ff1682141561080c576040805190810160405280600d81526020017f736f7574685f416d657269636100000000000000000000000000000000000000815250905061080d565b5b919050565b6000816040518082805190602001908083835b60208310151561084a5780518252602082019150602081019050602083039250610825565b6001836020036101000a038019825116818451168082178552505050505050905001915050908152602001604051809103902060006108899190610a8b565b50565b806000836040518082805190602001908083835b6020831015156108c557805182526020820191506020810190506020830392506108a0565b6001836020036101000a0380198251168184511680821785525050505050509050019150509081526020016040518091039020908051906020019061090b929190610ad3565b505050565b600080600080600090505b6001805490508160ff161015610a085760018160ff1681548110151561093d57fe5b90600052602060002090600202016000015460001916856000191614156109fb5760018160ff1681548110151561097057fe5b90600052602060002090600202016000015460018260ff1681548110151561099457fe5b906000526020600020906002020160010160009054906101000a900460ff1660068111156109be57fe5b60018360ff168154811015156109d057fe5b906000526020600020906002020160010160019054906101000a900461ffff16935093509350610a09565b808060010191505061091b565b5b509193909250565b602060405190810160405280600081525090565b6060604051908101604052806000801916815260200160006006811115610a4857fe5b8152602001600061ffff1681525090565b815481835581811511610a8657600202816002028360005260206000209182019101610a859190610b53565b5b505050565b50805460018160011615610100020316600290046000825580601f10610ab15750610ad0565b601f016020900490600052602060002090810190610acf9190610ba3565b5b50565b828054600181600116156101000203166002900490600052602060002090601f016020900481019282601f10610b1457805160ff1916838001178555610b42565b82800160010185558215610b42579182015b82811115610b41578251825591602001919060010190610b26565b5b509050610b4f9190610ba3565b5090565b610ba091905b80821115610b9c576000808201600090556001820160006101000a81549060ff02191690556001820160016101000a81549061ffff021916905550600201610b59565b5090565b90565b610bc591905b80821115610bc1576000816000905550600101610ba9565b5090565b905600a165627a7a72305820372676a43f2313dde3e86622dbeb3c71d7d3a66fcd0c49ede2a7d8e53e2586c50029",
  "source": "pragma solidity ^0.4.4;\r\n\r\ncontract MappingEnumStruct {\r\n\r\n    mapping(string => string) capitals;\r\n\r\n    enum continents {Africa, Antartica, Asia, Australia, Europe, North_America, south_America}\r\n\r\n    struct Country {\r\n        bytes32 name;\r\n        continents continent;\r\n        uint16 populationInMillion;\r\n    }\r\n\r\n    Country[] europeanCountries;\r\n\r\n    function addEuropeanCountry(bytes32 nm, uint8 cont, uint16 pop) returns (bool) {\r\n        if (cont != uint8(continents.Europe)) \r\n            return false;\r\n        \r\n        Country memory ctry;\r\n\r\n        ctry = Country(nm, continents(cont), pop);\r\n\r\n        europeanCountries.push(ctry);\r\n        return true; \r\n    }\r\n\r\n    function getEuropeanCountry (bytes32 name) returns (bytes32, uint8, uint16) {\r\n        for (uint8 i = 0; i < europeanCountries.length; i++){\r\n            if (name == europeanCountries[i].name) {\r\n                return (europeanCountries[i].name,\r\n                        uint8(europeanCountries[i].continent),\r\n                        europeanCountries[i].populationInMillion\r\n                        );\r\n            }\r\n        }\r\n    }\r\n\r\n    function addCapital(string country, string capital) {\r\n        capitals[country] = capital;\r\n    }\r\n\r\n    function getCapital(string country) returns (string) {\r\n        return capitals[country];\r\n    }\r\n\r\n    function removeCapital(string country) {\r\n        delete(capitals[country]);\r\n    }\r\n\r\n    function getContinent(uint arg) returns (string) {\r\n        if (arg == uint8(continents.Africa)) \r\n            return \"Africa\";\r\n        if (arg == uint8(continents.Antartica)) \r\n            return \"Antartica\";\r\n        if (arg == uint8(continents.Asia)) \r\n            return \"Asia\";\r\n        if (arg == uint8(continents.Australia)) \r\n            return \"Australia\";\r\n        if (arg == uint8(continents.Europe)) \r\n            return \"Europe\";\r\n        if (arg == uint8(continents.North_America)) \r\n            return \"North_America\";\r\n        if (arg == uint8(continents.south_America)) \r\n            return \"south_America\";\r\n    }\r\n}",
  "sourcePath": "C:\\inthra\\blockChain\\Demo-truffle\\contracts\\MappingEnumStruct.sol",
  "compiler": {
    "name": "solc",
    "version": "0.4.19+commit.c4cbbb05.Emscripten.clang"
  },
  "schemaVersion": "1.0.1",
  "updatedAt": "2018-03-14T22:18:19.356Z"
}