{
  "contractName": "MultiNumberBettingV2",
  "abi": [
    {
      "inputs": [
        {
          "name": "num0",
          "type": "uint8"
        },
        {
          "name": "num1",
          "type": "uint8"
        },
        {
          "name": "num2",
          "type": "uint8"
        }
      ],
      "payable": false,
      "stateMutability": "nonpayable",
      "type": "constructor"
    },
    {
      "constant": false,
      "inputs": [
        {
          "name": "num",
          "type": "uint8"
        },
        {
          "name": "name",
          "type": "string"
        }
      ],
      "name": "guess",
      "outputs": [
        {
          "name": "",
          "type": "bool"
        }
      ],
      "payable": false,
      "stateMutability": "nonpayable",
      "type": "function"
    },
    {
      "constant": false,
      "inputs": [],
      "name": "totalGuesses",
      "outputs": [
        {
          "name": "",
          "type": "uint256"
        }
      ],
      "payable": false,
      "stateMutability": "nonpayable",
      "type": "function"
    },
    {
      "constant": false,
      "inputs": [],
      "name": "getLastWinner",
      "outputs": [
        {
          "name": "",
          "type": "bytes"
        }
      ],
      "payable": false,
      "stateMutability": "nonpayable",
      "type": "function"
    }
  ],
  "bytecode": "0x6060604052341561000f57600080fd5b6040516060806105cc83398101604052808051906020019091908051906020019091908051906020019091905050826003600060038110151561004e57fe5b602091828204019190066101000a81548160ff021916908360ff160217905550816003600160038110151561007f57fe5b602091828204019190066101000a81548160ff021916908360ff16021790555080600360026003811015156100b057fe5b602091828204019190066101000a81548160ff021916908360ff1602179055505050506104ea806100e26000396000f300606060405260043610610057576000357c0100000000000000000000000000000000000000000000000000000000900463ffffffff1680638ef282491461005c57806395583f7114610085578063f88649a114610106575b600080fd5b341561006757600080fd5b61006f610194565b6040518082815260200191505060405180910390f35b341561009057600080fd5b6100ec600480803560ff1690602001909190803590602001908201803590602001908080601f016020809104026020016040519081016040528093929190818152602001838380828437820191505050505050919050506101a2565b604051808215151515815260200191505060405180910390f35b341561011157600080fd5b610119610247565b6040518080602001828103825283818151815260200191508051906020019080838360005b8381101561015957808201518184015260208101905061013e565b50505050905090810190601f1680156101865780820380516001836020036101000a031916815260200191505b509250505060405180910390f35b600060015460005401905090565b600080600090505b60038160ff16101561022a578360ff1660038260ff166003811015156101cc57fe5b602091828204019190069054906101000a900460ff1660ff16141561021d576001600081548092919060010191905055508260029080519060200190610213929190610405565b5060019150610240565b80806001019150506101aa565b6000808154809291906001019190505550600091505b5092915050565b61024f610485565b610257610485565b61025f610485565b6000600f6040518059106102705750595b9080825280601f01601f1916602001820160405250925060056040518059106102965750595b9080825280601f01601f1916602001820160405250915060028054600181600116156101000203166002900480601f0160208091040260200160405190810160405280929190818152602001828054600181600116156101000203166002900480156103435780601f1061031857610100808354040283529160200191610343565b820191906000526020600020905b81548152906001019060200180831161032657829003601f168201915b50505050509250600090505b60038110156103fc57828181518110151561036657fe5b9060200101517f010000000000000000000000000000000000000000000000000000000000000090047f01000000000000000000000000000000000000000000000000000000000000000282828151811015156103bf57fe5b9060200101907effffffffffffffffffffffffffffffffffffffffffffffffffffffffffffff1916908160001a905350808060010191505061034f565b81935050505090565b828054600181600116156101000203166002900490600052602060002090601f016020900481019282601f1061044657805160ff1916838001178555610474565b82800160010185558215610474579182015b82811115610473578251825591602001919060010190610458565b5b5090506104819190610499565b5090565b602060405190810160405280600081525090565b6104bb91905b808211156104b757600081600090555060010161049f565b5090565b905600a165627a7a72305820341589eba831522b1d1be3729c3630d8a8bd424441e16bbd13e44cdba63031210029",
  "source": "pragma solidity ^0.4.4;\r\n\r\n/**\r\n * Exercise: V1 \r\n * Section: 7\r\n * Part of an online course - for more info checkout link below\r\n * http://acloudfan.com/learn-blockchain\r\n */\r\n\r\ncontract MultiNumberBettingV2 {\r\n\r\n  // Ex-1 Part-2\r\n  uint  loserCount;\r\n  uint  winnerCount;\r\n  string lastWinnerName;\r\n\r\n  uint8[3]  numArray;\r\n\r\n  // Ex-1 Part-1\r\n  function MultiNumberBettingV2(uint8 num0, uint8 num1, uint8 num2) {\r\n    // constructor\r\n    numArray[0] = num0;\r\n    numArray[1] = num1;\r\n    numArray[2] = num2;\r\n  }\r\n\r\n  // Ex-1 Part-3\r\n  function guess(uint8 num, string name) returns (bool){\r\n    for(uint8 i = 0 ; i < numArray.length ; i++){\r\n      if(numArray[i] == num) {\r\n        // Increase the winner count\r\n        winnerCount++;\r\n        lastWinnerName = name;\r\n        return true;\r\n      }\r\n    }\r\n    loserCount++;\r\n    return false;\r\n  }\r\n\r\n  // Ex-2 \r\n  function totalGuesses() returns (uint){\r\n    return (loserCount+winnerCount);\r\n  }\r\n\r\n  // Ex-3\r\n  /**\r\n   * make a change to the 2_deploy_contracts.js\r\n   *   provide the 3 numbers to the constructor\r\n   * > testrpc\r\n   * > truffle migrate\r\n   * > trufle  networks\r\n   **/\r\n\r\n   function getLastWinner() returns (bytes){\r\n       bytes memory mLastWinner = new bytes(15);\r\n       bytes memory mLastWinner1 = new bytes(5);\r\n       mLastWinner = bytes(lastWinnerName);\r\n       for(uint i=0; i < 3; i++){\r\n            mLastWinner1[i] = mLastWinner[i]; \r\n        }\r\n\r\n        return mLastWinner1;\r\n   }\r\n}",
  "sourcePath": "C:\\inthra\\blockChain\\Demo-truffle\\contracts\\MultiNumberBettingV2.sol",
  "compiler": {
    "name": "solc",
    "version": "0.4.19+commit.c4cbbb05.Emscripten.clang"
  },
  "schemaVersion": "1.0.1",
  "updatedAt": "2018-03-14T22:18:19.346Z"
}