{
  "contractName": "MultiNumberBettingV3",
  "abi": [
    {
      "constant": true,
      "inputs": [],
      "name": "lastWinnerAt",
      "outputs": [
        {
          "name": "",
          "type": "uint256"
        }
      ],
      "payable": false,
      "stateMutability": "view",
      "type": "function"
    },
    {
      "constant": true,
      "inputs": [],
      "name": "loserCount",
      "outputs": [
        {
          "name": "",
          "type": "uint256"
        }
      ],
      "payable": false,
      "stateMutability": "view",
      "type": "function"
    },
    {
      "constant": true,
      "inputs": [],
      "name": "winnerCount",
      "outputs": [
        {
          "name": "",
          "type": "uint256"
        }
      ],
      "payable": false,
      "stateMutability": "view",
      "type": "function"
    },
    {
      "inputs": [
        {
          "name": "num0",
          "type": "uint8"
        },
        {
          "name": "num1",
          "type": "uint8"
        },
        {
          "name": "num2",
          "type": "uint8"
        }
      ],
      "payable": false,
      "stateMutability": "nonpayable",
      "type": "constructor"
    },
    {
      "constant": false,
      "inputs": [
        {
          "name": "num",
          "type": "uint8"
        },
        {
          "name": "name",
          "type": "string"
        }
      ],
      "name": "guess",
      "outputs": [
        {
          "name": "",
          "type": "bool"
        }
      ],
      "payable": false,
      "stateMutability": "nonpayable",
      "type": "function"
    },
    {
      "constant": false,
      "inputs": [],
      "name": "totalGuesses",
      "outputs": [
        {
          "name": "",
          "type": "uint256"
        }
      ],
      "payable": false,
      "stateMutability": "nonpayable",
      "type": "function"
    },
    {
      "constant": false,
      "inputs": [],
      "name": "getLastWinner",
      "outputs": [
        {
          "name": "",
          "type": "bytes"
        }
      ],
      "payable": false,
      "stateMutability": "nonpayable",
      "type": "function"
    },
    {
      "constant": false,
      "inputs": [],
      "name": "daysSinceLastWinning",
      "outputs": [
        {
          "name": "",
          "type": "uint256"
        }
      ],
      "payable": false,
      "stateMutability": "nonpayable",
      "type": "function"
    },
    {
      "constant": false,
      "inputs": [],
      "name": "hoursSinceLastWinning",
      "outputs": [
        {
          "name": "",
          "type": "uint256"
        }
      ],
      "payable": false,
      "stateMutability": "nonpayable",
      "type": "function"
    },
    {
      "constant": false,
      "inputs": [],
      "name": "minutesSinceLastWinning",
      "outputs": [
        {
          "name": "",
          "type": "uint256"
        }
      ],
      "payable": false,
      "stateMutability": "nonpayable",
      "type": "function"
    }
  ],
  "bytecode": "0x6060604052341561000f57600080fd5b6040516060806107e783398101604052808051906020019091908051906020019091908051906020019091905050826005600060038110151561004e57fe5b602091828204019190066101000a81548160ff021916908360ff160217905550816005600160038110151561007f57fe5b602091828204019190066101000a81548160ff021916908360ff16021790555080600560026003811015156100b057fe5b602091828204019190066101000a81548160ff021916908360ff160217905550505050610705806100e26000396000f300606060405260043610610099576000357c0100000000000000000000000000000000000000000000000000000000900463ffffffff1680630f8df5b41461009e57806315153cdc146100c757806348992bfa146100f0578063524799a7146101195780636d48a043146101425780638ef282491461016b57806395583f7114610194578063caa02e0814610215578063f88649a11461023e575b600080fd5b34156100a957600080fd5b6100b16102cc565b6040518082815260200191505060405180910390f35b34156100d257600080fd5b6100da6102d2565b6040518082815260200191505060405180910390f35b34156100fb57600080fd5b6101036102e2565b6040518082815260200191505060405180910390f35b341561012457600080fd5b61012c6102f1565b6040518082815260200191505060405180910390f35b341561014d57600080fd5b6101556102f7565b6040518082815260200191505060405180910390f35b341561017657600080fd5b61017e610308565b6040518082815260200191505060405180910390f35b341561019f57600080fd5b6101fb600480803560ff1690602001909190803590602001908201803590602001908080601f01602080910402602001604051908101604052809392919081815260200183838082843782019150505050505091905050610316565b604051808215151515815260200191505060405180910390f35b341561022057600080fd5b610228610414565b6040518082815260200191505060405180910390f35b341561024957600080fd5b61025161041a565b6040518080602001828103825283818151815260200191508051906020019080838360005b83811015610291578082015181840152602081019050610276565b50505050905090810190601f1680156102be5780820380516001836020036101000a031916815260200191505b509250505060405180910390f35b60025481565b6000610e10600254024203905090565b6000603c600254024203905090565b60005481565b600062015180600254024203905090565b600060015460005401905090565b600080600a8460ff16111561032a57600080fd5b600090505b60038160ff1610156103f7578360ff1660058260ff1660038110151561035157fe5b602091828204019190069054906101000a900460ff1660ff1614156103ea576001600081548092919060010191905055508260039080519060200190610398929190610620565b504260028190555033600460006101000a81548173ffffffffffffffffffffffffffffffffffffffff021916908373ffffffffffffffffffffffffffffffffffffffff1602179055506001915061040d565b808060010191505061032f565b6000808154809291906001019190505550600091505b5092915050565b60015481565b6104226106a0565b61042a6106a0565b6104326106a0565b6000600f6040518059106104435750595b9080825280601f01601f1916602001820160405250925060056040518059106104695750595b9080825280601f01601f1916602001820160405250915060038054600181600116156101000203166002900480601f0160208091040260200160405190810160405280929190818152602001828054600181600116156101000203166002900480156105165780601f106104eb57610100808354040283529160200191610516565b820191906000526020600020905b8154815290600101906020018083116104f957829003601f168201915b50505050509250600083511415610564576040805190810160405280600381526020017f2a2a2a0000000000000000000000000000000000000000000000000000000000815250935061061a565b600090505b600381101561061657828181518110151561058057fe5b9060200101517f010000000000000000000000000000000000000000000000000000000000000090047f01000000000000000000000000000000000000000000000000000000000000000282828151811015156105d957fe5b9060200101907effffffffffffffffffffffffffffffffffffffffffffffffffffffffffffff1916908160001a9053508080600101915050610569565b8193505b50505090565b828054600181600116156101000203166002900490600052602060002090601f016020900481019282601f1061066157805160ff191683800117855561068f565b8280016001018555821561068f579182015b8281111561068e578251825591602001919060010190610673565b5b50905061069c91906106b4565b5090565b602060405190810160405280600081525090565b6106d691905b808211156106d25760008160009055506001016106ba565b5090565b905600a165627a7a72305820c3336714609c11a65c02fb318fd737c66a3db9a9d2d202d73aad15586258c9800029",
  "source": "pragma solidity ^0.4.4;\r\n\r\n/**\r\n * Exercise: V1 \r\n * Section: 7\r\n * Part of an online course - for more info checkout link below\r\n * http://acloudfan.com/learn-blockchain\r\n */\r\n\r\ncontract MultiNumberBettingV3 {\r\n\r\n  // Ex-1 Part-2\r\n  // added public to generate the getters\r\n  uint  public loserCount;\r\n  uint  public winnerCount;\r\n  \r\n  uint public lastWinnerAt;\r\n  string lastWinnerName;\r\n\r\n  address winner;\r\n\r\n  uint8[3]  numArray;\r\n\r\n  // Ex-1 Part-1\r\n  function MultiNumberBettingV3(uint8 num0, uint8 num1, uint8 num2) {\r\n    // constructor\r\n    numArray[0] = num0;\r\n    numArray[1] = num1;\r\n    numArray[2] = num2;\r\n  }\r\n\r\n  // Ex-1 Part-3\r\n  function guess(uint8 num, string name) returns (bool){\r\n    \r\n    //Lec-71 Ex-4\r\n    if(num > 10) {\r\n        revert();\r\n    }\r\n    \r\n    for(uint8 i = 0 ; i < numArray.length ; i++){\r\n      if(numArray[i] == num) {\r\n        // Increase the winner count\r\n        winnerCount++;\r\n        lastWinnerName = name;\r\n\r\n        // Lec-71 Ex-1\r\n        lastWinnerAt = now;\r\n\r\n        //Lec-71 Ex-3\r\n        winner = msg.sender;\r\n\r\n        return true;\r\n      }\r\n    }\r\n    loserCount++;\r\n    return false;\r\n  }\r\n\r\n  // Ex-2 \r\n  function totalGuesses() returns (uint){\r\n    return (loserCount+winnerCount);\r\n  }\r\n\r\n  // Ex-3\r\n  /**\r\n   * make a change to the 2_deploy_contracts.js\r\n   *   provide the 3 numbers to the constructor\r\n   * > testrpc\r\n   * > truffle migrate\r\n   * > trufle  networks\r\n   **/\r\n\r\n   function getLastWinner() returns (bytes){\r\n       bytes memory mLastWinner = new bytes(15);\r\n       bytes memory mLastWinner1 = new bytes(5);\r\n       mLastWinner = bytes(lastWinnerName);\r\n       if(mLastWinner.length == 0){\r\n            return \"***\";\r\n       }\r\n\r\n       for(uint i=0; i < 3; i++){\r\n            mLastWinner1[i] = mLastWinner[i]; \r\n        }\r\n\r\n        return mLastWinner1;\r\n   }\r\n\r\n   //Lec-71 Ex-3\r\n   function daysSinceLastWinning() public returns (uint) {\r\n       return (block.timestamp - lastWinnerAt*1 days);\r\n   }\r\n\r\n   //Lec-71 Ex-3\r\n   function hoursSinceLastWinning() public returns (uint) {\r\n       return (now - lastWinnerAt*1 hours);\r\n   }\r\n\r\n   //Lec-71 Ex-3\r\n   function minutesSinceLastWinning() public returns (uint) {\r\n       return (now - lastWinnerAt*1 minutes);\r\n   }\r\n\r\n\r\n}",
  "sourcePath": "C:\\inthra\\blockChain\\Demo-truffle\\contracts\\MultiNumberBettingV3.sol",
  "compiler": {
    "name": "solc",
    "version": "0.4.19+commit.c4cbbb05.Emscripten.clang"
  },
  "schemaVersion": "1.0.1",
  "updatedAt": "2018-02-26T22:20:01.339Z"
}