{
  "contractName": "MultiNumberBettingV4",
  "abi": [
    {
      "constant": true,
      "inputs": [],
      "name": "lastWinnerAt",
      "outputs": [
        {
          "name": "",
          "type": "uint256"
        }
      ],
      "payable": false,
      "stateMutability": "view",
      "type": "function"
    },
    {
      "constant": true,
      "inputs": [],
      "name": "loserCount",
      "outputs": [
        {
          "name": "",
          "type": "uint256"
        }
      ],
      "payable": false,
      "stateMutability": "view",
      "type": "function"
    },
    {
      "constant": true,
      "inputs": [],
      "name": "winnerCount",
      "outputs": [
        {
          "name": "",
          "type": "uint256"
        }
      ],
      "payable": false,
      "stateMutability": "view",
      "type": "function"
    },
    {
      "inputs": [
        {
          "name": "num0",
          "type": "uint8"
        },
        {
          "name": "num1",
          "type": "uint8"
        },
        {
          "name": "num2",
          "type": "uint8"
        }
      ],
      "payable": false,
      "stateMutability": "nonpayable",
      "type": "constructor"
    },
    {
      "constant": false,
      "inputs": [
        {
          "name": "num",
          "type": "uint8"
        },
        {
          "name": "name",
          "type": "string"
        }
      ],
      "name": "guess",
      "outputs": [
        {
          "name": "",
          "type": "bool"
        }
      ],
      "payable": false,
      "stateMutability": "nonpayable",
      "type": "function"
    },
    {
      "constant": false,
      "inputs": [],
      "name": "totalGuesses",
      "outputs": [
        {
          "name": "",
          "type": "uint256"
        }
      ],
      "payable": false,
      "stateMutability": "nonpayable",
      "type": "function"
    },
    {
      "constant": false,
      "inputs": [],
      "name": "getLastWinner",
      "outputs": [
        {
          "name": "",
          "type": "bytes"
        }
      ],
      "payable": false,
      "stateMutability": "nonpayable",
      "type": "function"
    },
    {
      "constant": false,
      "inputs": [],
      "name": "daysSinceLastWinning",
      "outputs": [
        {
          "name": "",
          "type": "uint256"
        }
      ],
      "payable": false,
      "stateMutability": "nonpayable",
      "type": "function"
    },
    {
      "constant": false,
      "inputs": [],
      "name": "hoursSinceLastWinning",
      "outputs": [
        {
          "name": "",
          "type": "uint256"
        }
      ],
      "payable": false,
      "stateMutability": "nonpayable",
      "type": "function"
    },
    {
      "constant": false,
      "inputs": [],
      "name": "minutesSinceLastWinning",
      "outputs": [
        {
          "name": "",
          "type": "uint256"
        }
      ],
      "payable": false,
      "stateMutability": "nonpayable",
      "type": "function"
    },
    {
      "constant": false,
      "inputs": [],
      "name": "getLastWinnerInfo",
      "outputs": [
        {
          "name": "winnerAddress",
          "type": "address"
        },
        {
          "name": "name",
          "type": "string"
        },
        {
          "name": "guess",
          "type": "uint256"
        },
        {
          "name": "guessedAt",
          "type": "uint256"
        }
      ],
      "payable": false,
      "stateMutability": "nonpayable",
      "type": "function"
    },
    {
      "constant": false,
      "inputs": [
        {
          "name": "addr",
          "type": "address"
        }
      ],
      "name": "checkWinning",
      "outputs": [
        {
          "name": "winnerAddress",
          "type": "address"
        },
        {
          "name": "name",
          "type": "string"
        },
        {
          "name": "guess",
          "type": "uint256"
        },
        {
          "name": "guessedAt",
          "type": "uint256"
        }
      ],
      "payable": false,
      "stateMutability": "nonpayable",
      "type": "function"
    }
  ],
  "bytecode": "0x6060604052341561000f57600080fd5b604051606080610f0883398101604052808051906020019091908051906020019091908051906020019091905050826005600060038110151561004e57fe5b602091828204019190066101000a81548160ff021916908360ff160217905550816005600160038110151561007f57fe5b602091828204019190066101000a81548160ff021916908360ff16021790555080600560026003811015156100b057fe5b602091828204019190066101000a81548160ff021916908360ff160217905550505050610e26806100e26000396000f3006060604052600436106100af576000357c0100000000000000000000000000000000000000000000000000000000900463ffffffff1680630f8df5b4146100b457806315153cdc146100dd57806348992bfa14610106578063524799a71461012f5780635249c231146101585780636d48a0431461024b5780638ef282491461027457806395583f711461029d578063caa02e081461031e578063ee040eb914610347578063f88649a114610416575b600080fd5b34156100bf57600080fd5b6100c76104a4565b6040518082815260200191505060405180910390f35b34156100e857600080fd5b6100f06104aa565b6040518082815260200191505060405180910390f35b341561011157600080fd5b6101196104ba565b6040518082815260200191505060405180910390f35b341561013a57600080fd5b6101426104c9565b6040518082815260200191505060405180910390f35b341561016357600080fd5b61018f600480803573ffffffffffffffffffffffffffffffffffffffff169060200190919050506104cf565b604051808573ffffffffffffffffffffffffffffffffffffffff1673ffffffffffffffffffffffffffffffffffffffff16815260200180602001848152602001838152602001828103825285818151815260200191508051906020019080838360005b8381101561020d5780820151818401526020810190506101f2565b50505050905090810190601f16801561023a5780820380516001836020036101000a031916815260200191505b509550505050505060405180910390f35b341561025657600080fd5b61025e610670565b6040518082815260200191505060405180910390f35b341561027f57600080fd5b610287610681565b6040518082815260200191505060405180910390f35b34156102a857600080fd5b610304600480803560ff1690602001909190803590602001908201803590602001908080601f0160208091040260200160405190810160405280939291908181526020018383808284378201915050505050509190505061068f565b604051808215151515815260200191505060405180910390f35b341561032957600080fd5b6103316108e9565b6040518082815260200191505060405180910390f35b341561035257600080fd5b61035a6108ef565b604051808573ffffffffffffffffffffffffffffffffffffffff1673ffffffffffffffffffffffffffffffffffffffff16815260200180602001848152602001838152602001828103825285818151815260200191508051906020019080838360005b838110156103d85780820151818401526020810190506103bd565b50505050905090810190601f1680156104055780820380516001836020036101000a031916815260200191505b509550505050505060405180910390f35b341561042157600080fd5b610429610ace565b6040518080602001828103825283818151815260200191508051906020019080838360005b8381101561046957808201518184015260208101905061044e565b50505050905090810190601f1680156104965780820380516001836020036101000a031916815260200191505b509250505060405180910390f35b60025481565b6000610e10600254024203905090565b6000603c600254024203905090565b60005481565b60006104d9610cd4565b6000806104e4610ce8565b600660008773ffffffffffffffffffffffffffffffffffffffff1673ffffffffffffffffffffffffffffffffffffffff168152602001908152602001600020608060405190810160405290816000820160009054906101000a900473ffffffffffffffffffffffffffffffffffffffff1673ffffffffffffffffffffffffffffffffffffffff1673ffffffffffffffffffffffffffffffffffffffff168152602001600182018054600181600116156101000203166002900480601f01602080910402602001604051908101604052809291908181526020018280546001816001161561010002031660029004801561061e5780601f106105f35761010080835404028352916020019161061e565b820191906000526020600020905b81548152906001019060200180831161060157829003601f168201915b505050505081526020016002820154815260200160038201548152505090506000816060015114151561066857806000015194508060200151935080604001519250806060015191505b509193509193565b600062015180600254024203905090565b600060015460005401905090565b6000610699610ce8565b6000600a8560ff1611156106ac57600080fd5b600090505b60038160ff1610156108cb578460ff1660058260ff166003811015156106d357fe5b602091828204019190069054906101000a900460ff1660ff1614156108be5760016000815480929190600101919050555083600660003373ffffffffffffffffffffffffffffffffffffffff1673ffffffffffffffffffffffffffffffffffffffff168152602001908152602001600020600101908051906020019061075a929190610d2d565b504260028190555042600660003373ffffffffffffffffffffffffffffffffffffffff1673ffffffffffffffffffffffffffffffffffffffff1681526020019081526020016000206003018190555033600460006101000a81548173ffffffffffffffffffffffffffffffffffffffff021916908373ffffffffffffffffffffffffffffffffffffffff16021790555033600660003373ffffffffffffffffffffffffffffffffffffffff1673ffffffffffffffffffffffffffffffffffffffff16815260200190815260200160002060000160006101000a81548173ffffffffffffffffffffffffffffffffffffffff021916908373ffffffffffffffffffffffffffffffffffffffff1602179055508460ff16600660003373ffffffffffffffffffffffffffffffffffffffff1673ffffffffffffffffffffffffffffffffffffffff16815260200190815260200160002060020181905550600192506108e1565b80806001019150506106b1565b6000808154809291906001019190505550600092505b505092915050565b60015481565b60006108f9610cd4565b600080600660003373ffffffffffffffffffffffffffffffffffffffff1673ffffffffffffffffffffffffffffffffffffffff16815260200190815260200160002060000160009054906101000a900473ffffffffffffffffffffffffffffffffffffffff169350600660003373ffffffffffffffffffffffffffffffffffffffff1673ffffffffffffffffffffffffffffffffffffffff1681526020019081526020016000206001018054600181600116156101000203166002900480601f016020809104026020016040519081016040528092919081815260200182805460018160011615610100020316600290048015610a375780601f10610a0c57610100808354040283529160200191610a37565b820191906000526020600020905b815481529060010190602001808311610a1a57829003601f168201915b50505050509250600660003373ffffffffffffffffffffffffffffffffffffffff1673ffffffffffffffffffffffffffffffffffffffff168152602001908152602001600020600201549150600660003373ffffffffffffffffffffffffffffffffffffffff1673ffffffffffffffffffffffffffffffffffffffff16815260200190815260200160002060030154905090919293565b610ad6610dad565b610ade610dad565b610ae6610dad565b6000600f604051805910610af75750595b9080825280601f01601f191660200182016040525092506005604051805910610b1d5750595b9080825280601f01601f1916602001820160405250915060038054600181600116156101000203166002900480601f016020809104026020016040519081016040528092919081815260200182805460018160011615610100020316600290048015610bca5780601f10610b9f57610100808354040283529160200191610bca565b820191906000526020600020905b815481529060010190602001808311610bad57829003601f168201915b50505050509250600083511415610c18576040805190810160405280600381526020017f2a2a2a00000000000000000000000000000000000000000000000000000000008152509350610cce565b600090505b6003811015610cca578281815181101515610c3457fe5b9060200101517f010000000000000000000000000000000000000000000000000000000000000090047f0100000000000000000000000000000000000000000000000000000000000000028282815181101515610c8d57fe5b9060200101907effffffffffffffffffffffffffffffffffffffffffffffffffffffffffffff1916908160001a9053508080600101915050610c1d565b8193505b50505090565b602060405190810160405280600081525090565b608060405190810160405280600073ffffffffffffffffffffffffffffffffffffffff168152602001610d19610dc1565b815260200160008152602001600081525090565b828054600181600116156101000203166002900490600052602060002090601f016020900481019282601f10610d6e57805160ff1916838001178555610d9c565b82800160010185558215610d9c579182015b82811115610d9b578251825591602001919060010190610d80565b5b509050610da99190610dd5565b5090565b602060405190810160405280600081525090565b602060405190810160405280600081525090565b610df791905b80821115610df3576000816000905550600101610ddb565b5090565b905600a165627a7a7230582081d10f814ae1cd0ed6e894bd12a5d2945185da9f2a18bc1199e56531abad62290029",
  "source": "pragma solidity ^0.4.4;\r\n\r\n/**\r\n * Exercise: V1 \r\n * Section: 7\r\n * Part of an online course - for more info checkout link below\r\n * http://acloudfan.com/learn-blockchain\r\n */\r\n\r\ncontract MultiNumberBettingV4 {\r\n\r\n  // Ex-1 Part-2\r\n  // added public to generate the getters\r\n  uint  public loserCount;\r\n  uint  public winnerCount;\r\n  \r\n  uint public lastWinnerAt;\r\n  string lastWinnerName;\r\n\r\n  address winner;\r\n\r\n  uint8[3]  numArray;\r\n\r\n  struct Winner {\r\n      address winnerAddress;\r\n      string name;\r\n      uint guess;\r\n      uint guessedAt;\r\n  }\r\n\r\n  mapping(address => Winner) winnerMapping;\r\n\r\n  // Ex-1 Part-1\r\n  function MultiNumberBettingV4(uint8 num0, uint8 num1, uint8 num2) {\r\n    // constructor\r\n    numArray[0] = num0;\r\n    numArray[1] = num1;\r\n    numArray[2] = num2;\r\n  }\r\n\r\n  // Ex-1 Part-3\r\n  function guess(uint8 num, string name) returns (bool){\r\n    \r\n    //Lec-71 Ex-4\r\n    if(num > 10) {\r\n        revert();\r\n    }\r\n\r\n    Winner memory winnerStruct;\r\n    \r\n    for(uint8 i = 0 ; i < numArray.length ; i++){\r\n      if(numArray[i] == num) {\r\n        // Increase the winner count\r\n        winnerCount++;\r\n        //lastWinnerName = name;\r\n        winnerMapping[msg.sender].name = name;\r\n\r\n        // Lec-71 Ex-1\r\n        lastWinnerAt = now;\r\n        winnerMapping[msg.sender].guessedAt = now;\r\n\r\n        //Lec-71 Ex-3\r\n        winner = msg.sender;\r\n        winnerMapping[msg.sender].winnerAddress = msg.sender;\r\n        winnerMapping[msg.sender].guess = num;\r\n\r\n        return true;\r\n      }\r\n    }\r\n    loserCount++;\r\n    return false;\r\n  }\r\n\r\n  // Ex-2 \r\n  function totalGuesses() returns (uint){\r\n    return (loserCount+winnerCount);\r\n  }\r\n\r\n  // Ex-3\r\n  /**\r\n   * make a change to the 2_deploy_contracts.js\r\n   *   provide the 3 numbers to the constructor\r\n   * > testrpc\r\n   * > truffle migrate\r\n   * > trufle  networks\r\n   **/\r\n\r\n   function getLastWinner() returns (bytes){\r\n       bytes memory mLastWinner = new bytes(15);\r\n       bytes memory mLastWinner1 = new bytes(5);\r\n       mLastWinner = bytes(lastWinnerName);\r\n       if(mLastWinner.length == 0){\r\n            return \"***\";\r\n       }\r\n\r\n       for(uint i=0; i < 3; i++){\r\n            mLastWinner1[i] = mLastWinner[i]; \r\n        }\r\n\r\n        return mLastWinner1;\r\n   }\r\n\r\n   //Lec-71 Ex-3\r\n   function daysSinceLastWinning() public returns (uint) {\r\n       return (block.timestamp - lastWinnerAt*1 days);\r\n   }\r\n\r\n   //Lec-71 Ex-3\r\n   function hoursSinceLastWinning() public returns (uint) {\r\n       return (now - lastWinnerAt*1 hours);\r\n   }\r\n\r\n   //Lec-71 Ex-3\r\n   function minutesSinceLastWinning() public returns (uint) {\r\n       return (now - lastWinnerAt*1 minutes);\r\n   }\r\n\r\n   //Lec-73 Ex-2\r\n   function getLastWinnerInfo() returns (address winnerAddress, string name, uint guess, uint guessedAt) {\r\n        winnerAddress = winnerMapping[msg.sender].winnerAddress;\r\n        name = winnerMapping[msg.sender].name;\r\n        guess = winnerMapping[msg.sender].guess;\r\n        guessedAt = winnerMapping[msg.sender].guessedAt;\r\n   }\r\n\r\n   // Lec-73 Ex-3\r\n   function checkWinning(address addr) returns (address winnerAddress, string name, uint guess, uint guessedAt) {\r\n       Winner memory winnerLocal = winnerMapping[addr];\r\n       if(winnerLocal.guessedAt != 0) {\r\n       winnerAddress = winnerLocal.winnerAddress;\r\n       name = winnerLocal.name;\r\n       guess = winnerLocal.guess;\r\n       guessedAt = winnerLocal.guessedAt;\r\n       }\r\n   }\r\n}",
  "sourcePath": "C:\\inthra\\blockChain\\Demo-truffle\\contracts\\MultiNumberBettingV4.sol",
  "compiler": {
    "name": "solc",
    "version": "0.4.19+commit.c4cbbb05.Emscripten.clang"
  },
  "schemaVersion": "1.0.1",
  "updatedAt": "2018-03-14T22:18:19.351Z"
}