{
  "contractName": "MultiNumberBettingV6",
  "abi": [
    {
      "constant": true,
      "inputs": [],
      "name": "lastWinnerAt",
      "outputs": [
        {
          "name": "",
          "type": "uint256"
        }
      ],
      "payable": false,
      "stateMutability": "view",
      "type": "function"
    },
    {
      "constant": true,
      "inputs": [],
      "name": "loserCount",
      "outputs": [
        {
          "name": "",
          "type": "uint256"
        }
      ],
      "payable": false,
      "stateMutability": "view",
      "type": "function"
    },
    {
      "constant": true,
      "inputs": [],
      "name": "winnerCount",
      "outputs": [
        {
          "name": "",
          "type": "uint256"
        }
      ],
      "payable": false,
      "stateMutability": "view",
      "type": "function"
    },
    {
      "inputs": [
        {
          "name": "num0",
          "type": "uint8"
        },
        {
          "name": "num1",
          "type": "uint8"
        },
        {
          "name": "num2",
          "type": "uint8"
        }
      ],
      "payable": false,
      "stateMutability": "nonpayable",
      "type": "constructor"
    },
    {
      "payable": true,
      "stateMutability": "payable",
      "type": "fallback"
    },
    {
      "constant": false,
      "inputs": [
        {
          "name": "num",
          "type": "uint8"
        },
        {
          "name": "name",
          "type": "string"
        }
      ],
      "name": "guess",
      "outputs": [
        {
          "name": "",
          "type": "bool"
        }
      ],
      "payable": true,
      "stateMutability": "payable",
      "type": "function"
    },
    {
      "constant": false,
      "inputs": [],
      "name": "totalGuesses",
      "outputs": [
        {
          "name": "",
          "type": "uint256"
        }
      ],
      "payable": false,
      "stateMutability": "nonpayable",
      "type": "function"
    },
    {
      "constant": false,
      "inputs": [],
      "name": "getLastWinner",
      "outputs": [
        {
          "name": "",
          "type": "bytes"
        }
      ],
      "payable": false,
      "stateMutability": "nonpayable",
      "type": "function"
    },
    {
      "constant": false,
      "inputs": [],
      "name": "daysSinceLastWinning",
      "outputs": [
        {
          "name": "",
          "type": "uint256"
        }
      ],
      "payable": false,
      "stateMutability": "nonpayable",
      "type": "function"
    },
    {
      "constant": false,
      "inputs": [],
      "name": "hoursSinceLastWinning",
      "outputs": [
        {
          "name": "",
          "type": "uint256"
        }
      ],
      "payable": false,
      "stateMutability": "nonpayable",
      "type": "function"
    },
    {
      "constant": false,
      "inputs": [],
      "name": "minutesSinceLastWinning",
      "outputs": [
        {
          "name": "",
          "type": "uint256"
        }
      ],
      "payable": false,
      "stateMutability": "nonpayable",
      "type": "function"
    },
    {
      "constant": false,
      "inputs": [],
      "name": "getLastWinnerInfo",
      "outputs": [
        {
          "name": "winnerAddress",
          "type": "address"
        },
        {
          "name": "name",
          "type": "string"
        },
        {
          "name": "guess",
          "type": "uint256"
        },
        {
          "name": "guessedAt",
          "type": "uint256"
        },
        {
          "name": "ethersReceived",
          "type": "uint256"
        }
      ],
      "payable": false,
      "stateMutability": "nonpayable",
      "type": "function"
    },
    {
      "constant": false,
      "inputs": [
        {
          "name": "addr",
          "type": "address"
        }
      ],
      "name": "checkWinning",
      "outputs": [
        {
          "name": "winnerAddress",
          "type": "address"
        },
        {
          "name": "name",
          "type": "string"
        },
        {
          "name": "guess",
          "type": "uint256"
        },
        {
          "name": "guessedAt",
          "type": "uint256"
        }
      ],
      "payable": false,
      "stateMutability": "nonpayable",
      "type": "function"
    },
    {
      "constant": false,
      "inputs": [
        {
          "name": "amount",
          "type": "uint256"
        }
      ],
      "name": "ownerWithdraw",
      "outputs": [],
      "payable": false,
      "stateMutability": "nonpayable",
      "type": "function"
    }
  ],
  "bytecode": "0x6060604052341561000f57600080fd5b60405160608061115f83398101604052808051906020019091908051906020019091908051906020019091905050826005600060038110151561004e57fe5b602091828204019190066101000a81548160ff021916908360ff160217905550816005600160038110151561007f57fe5b602091828204019190066101000a81548160ff021916908360ff16021790555080600560026003811015156100b057fe5b602091828204019190066101000a81548160ff021916908360ff16021790555033600760006101000a81548173ffffffffffffffffffffffffffffffffffffffff021916908373ffffffffffffffffffffffffffffffffffffffff16021790555050505061103c806101236000396000f3006060604052600436106100ba576000357c0100000000000000000000000000000000000000000000000000000000900463ffffffff1680630f8df5b4146100bc57806315153cdc146100e557806333f707d11461010e57806348992bfa14610131578063524799a71461015a5780635249c231146101835780636d48a043146102765780638ef282491461029f57806395583f71146102c8578063caa02e081461033e578063ee040eb914610367578063f88649a11461043d575b005b34156100c757600080fd5b6100cf6104cb565b6040518082815260200191505060405180910390f35b34156100f057600080fd5b6100f86104d1565b6040518082815260200191505060405180910390f35b341561011957600080fd5b61012f60048080359060200190919050506104e1565b005b341561013c57600080fd5b6101446105af565b6040518082815260200191505060405180910390f35b341561016557600080fd5b61016d6105be565b6040518082815260200191505060405180910390f35b341561018e57600080fd5b6101ba600480803573ffffffffffffffffffffffffffffffffffffffff169060200190919050506105c4565b604051808573ffffffffffffffffffffffffffffffffffffffff1673ffffffffffffffffffffffffffffffffffffffff16815260200180602001848152602001838152602001828103825285818151815260200191508051906020019080838360005b8381101561023857808201518184015260208101905061021d565b50505050905090810190601f1680156102655780820380516001836020036101000a031916815260200191505b509550505050505060405180910390f35b341561028157600080fd5b61028961076f565b6040518082815260200191505060405180910390f35b34156102aa57600080fd5b6102b2610780565b6040518082815260200191505060405180910390f35b610324600480803560ff1690602001909190803590602001908201803590602001908080601f0160208091040260200160405190810160405280939291908181526020018383808284378201915050505050509190505061078e565b604051808215151515815260200191505060405180910390f35b341561034957600080fd5b610351610ab0565b6040518082815260200191505060405180910390f35b341561037257600080fd5b61037a610ab6565b604051808673ffffffffffffffffffffffffffffffffffffffff1673ffffffffffffffffffffffffffffffffffffffff16815260200180602001858152602001848152602001838152602001828103825286818151815260200191508051906020019080838360005b838110156103fe5780820151818401526020810190506103e3565b50505050905090810190601f16801561042b5780820380516001836020036101000a031916815260200191505b50965050505050505060405180910390f35b341561044857600080fd5b610450610cdd565b6040518080602001828103825283818151815260200191508051906020019080838360005b83811015610490578082015181840152602081019050610475565b50505050905090810190601f1680156104bd5780820380516001836020036101000a031916815260200191505b509250505060405180910390f35b60025481565b6000610e10600254024203905090565b600760009054906101000a900473ffffffffffffffffffffffffffffffffffffffff1673ffffffffffffffffffffffffffffffffffffffff163373ffffffffffffffffffffffffffffffffffffffff1614151561053d57600080fd5b6001600302813073ffffffffffffffffffffffffffffffffffffffff16310311156105a7573373ffffffffffffffffffffffffffffffffffffffff166108fc829081150290604051600060405180830381858888f1935050505015156105a257600080fd5b6105ac565b600080fd5b50565b6000603c600254024203905090565b60005481565b60006105ce610ee3565b6000806105d9610ef7565b600660008773ffffffffffffffffffffffffffffffffffffffff1673ffffffffffffffffffffffffffffffffffffffff16815260200190815260200160002060a060405190810160405290816000820160009054906101000a900473ffffffffffffffffffffffffffffffffffffffff1673ffffffffffffffffffffffffffffffffffffffff1673ffffffffffffffffffffffffffffffffffffffff168152602001600182018054600181600116156101000203166002900480601f0160208091040260200160405190810160405280929190818152602001828054600181600116156101000203166002900480156107135780601f106106e857610100808354040283529160200191610713565b820191906000526020600020905b8154815290600101906020018083116106f657829003601f168201915b50505050508152602001600282015481526020016003820154815260200160048201548152505090506000816060015114151561076757806000015194508060200151935080604001519250806060015191505b509193509193565b600062015180600254024203905090565b600060015460005401905090565b600080600060016003023073ffffffffffffffffffffffffffffffffffffffff16311115156107bc57600080fd5b600a8560ff1611156107cd57600080fd5b60013411806107dc5750600534105b156107e657600080fd5b600091505b60038260ff161015610a92578460ff1660058360ff1660038110151561080d57fe5b602091828204019190069054906101000a900460ff1660ff161415610a855760016000815480929190600101919050555083600660003373ffffffffffffffffffffffffffffffffffffffff1673ffffffffffffffffffffffffffffffffffffffff1681526020019081526020016000206001019080519060200190610894929190610f43565b504260028190555042600660003373ffffffffffffffffffffffffffffffffffffffff1673ffffffffffffffffffffffffffffffffffffffff1681526020019081526020016000206003018190555033600460006101000a81548173ffffffffffffffffffffffffffffffffffffffff021916908373ffffffffffffffffffffffffffffffffffffffff16021790555033600660003373ffffffffffffffffffffffffffffffffffffffff1673ffffffffffffffffffffffffffffffffffffffff16815260200190815260200160002060000160006101000a81548173ffffffffffffffffffffffffffffffffffffffff021916908373ffffffffffffffffffffffffffffffffffffffff1602179055508460ff16600660003373ffffffffffffffffffffffffffffffffffffffff1673ffffffffffffffffffffffffffffffffffffffff1681526020019081526020016000206002018190555034600660003373ffffffffffffffffffffffffffffffffffffffff1673ffffffffffffffffffffffffffffffffffffffff168152602001908152602001600020600401819055503460020290503373ffffffffffffffffffffffffffffffffffffffff166108fc829081150290604051600060405180830381858888f193505050501515610a7c57600080fd5b60019250610aa8565b81806001019250506107eb565b6000808154809291906001019190505550600092505b505092915050565b60015481565b6000610ac0610ee3565b6000806000600660003373ffffffffffffffffffffffffffffffffffffffff1673ffffffffffffffffffffffffffffffffffffffff16815260200190815260200160002060000160009054906101000a900473ffffffffffffffffffffffffffffffffffffffff169450600660003373ffffffffffffffffffffffffffffffffffffffff1673ffffffffffffffffffffffffffffffffffffffff1681526020019081526020016000206001018054600181600116156101000203166002900480601f016020809104026020016040519081016040528092919081815260200182805460018160011615610100020316600290048015610c005780601f10610bd557610100808354040283529160200191610c00565b820191906000526020600020905b815481529060010190602001808311610be357829003601f168201915b50505050509350600660003373ffffffffffffffffffffffffffffffffffffffff1673ffffffffffffffffffffffffffffffffffffffff168152602001908152602001600020600201549250600660003373ffffffffffffffffffffffffffffffffffffffff1673ffffffffffffffffffffffffffffffffffffffff168152602001908152602001600020600301549150600660003373ffffffffffffffffffffffffffffffffffffffff1673ffffffffffffffffffffffffffffffffffffffff1681526020019081526020016000206004015490509091929394565b610ce5610fc3565b610ced610fc3565b610cf5610fc3565b6000600f604051805910610d065750595b9080825280601f01601f191660200182016040525092506005604051805910610d2c5750595b9080825280601f01601f1916602001820160405250915060038054600181600116156101000203166002900480601f016020809104026020016040519081016040528092919081815260200182805460018160011615610100020316600290048015610dd95780601f10610dae57610100808354040283529160200191610dd9565b820191906000526020600020905b815481529060010190602001808311610dbc57829003601f168201915b50505050509250600083511415610e27576040805190810160405280600381526020017f2a2a2a00000000000000000000000000000000000000000000000000000000008152509350610edd565b600090505b6003811015610ed9578281815181101515610e4357fe5b9060200101517f010000000000000000000000000000000000000000000000000000000000000090047f0100000000000000000000000000000000000000000000000000000000000000028282815181101515610e9c57fe5b9060200101907effffffffffffffffffffffffffffffffffffffffffffffffffffffffffffff1916908160001a9053508080600101915050610e2c565b8193505b50505090565b602060405190810160405280600081525090565b60a060405190810160405280600073ffffffffffffffffffffffffffffffffffffffff168152602001610f28610fd7565b81526020016000815260200160008152602001600081525090565b828054600181600116156101000203166002900490600052602060002090601f016020900481019282601f10610f8457805160ff1916838001178555610fb2565b82800160010185558215610fb2579182015b82811115610fb1578251825591602001919060010190610f96565b5b509050610fbf9190610feb565b5090565b602060405190810160405280600081525090565b602060405190810160405280600081525090565b61100d91905b80821115611009576000816000905550600101610ff1565b5090565b905600a165627a7a72305820f69a1af1ebc127db284b0387be879934c4c46f615763a7506aef0ab850257dbd0029",
  "source": "pragma solidity ^0.4.4;\r\n\r\nimport \"./MultiNumberBettingAbstractV2.sol\";\r\n/**\r\n * Exercise: V1 \r\n * Section: 7\r\n * Part of an online course - for more info checkout link below\r\n * http://acloudfan.com/learn-blockchain\r\n */\r\n\r\ncontract MultiNumberBettingV6 is MultiNumberBettingAbstractV2 {\r\n\r\n  // Ex-1 Part-2\r\n  // added public to generate the getters\r\n  uint  public loserCount;\r\n  uint  public winnerCount;\r\n  \r\n  uint public lastWinnerAt;\r\n  string lastWinnerName;\r\n\r\n  address winner;\r\n\r\n  uint8[3]  numArray;\r\n\r\n  struct Winner {\r\n      address winnerAddress;\r\n      string name;\r\n      uint guess;\r\n      uint guessedAt;\r\n      uint ethersReceived;\r\n  }\r\n\r\n   mapping(address => Winner) winnerMapping;\r\n\r\n   // Lec-82 Ex-3\r\n   address owner;\r\n   \r\n   modifier OwnerOnly() {\r\n       require(msg.sender == owner);\r\n       _;\r\n   }\r\n\r\n    // Ex-1 Part-1\r\n  function MultiNumberBettingV6(uint8 num0, uint8 num1, uint8 num2) {\r\n    // constructor\r\n    numArray[0] = num0;\r\n    numArray[1] = num1;\r\n    numArray[2] = num2;\r\n\r\n    owner = msg.sender;\r\n  }\r\n\r\n  // Ex-1 Part-3\r\n  function guess(uint8 num, string name) public payable returns (bool) {\r\n    \r\n    //Lec-82 Ex-1 - The bets will be accepted only if contract has a balance of > 3*MAX_BET.  \r\n    require(this.balance > 3*MAX_BET);\r\n\r\n    //Lec-71 Ex-4\r\n    if(num > 10) {\r\n        revert();\r\n    }\r\n\r\n    //Lec-80 Ex-4\r\n    if(msg.value > MAX_BET || msg.value < MIN_BET) {\r\n        revert();\r\n    }\r\n    \r\n    //Winner memory winnerStruct;\r\n    \r\n    for(uint8 i = 0 ; i < numArray.length ; i++) {\r\n      if(numArray[i] == num) {\r\n        // Increase the winner count\r\n        winnerCount++;\r\n        //lastWinnerName = name;\r\n        winnerMapping[msg.sender].name = name;\r\n\r\n        // Lec-71 Ex-1\r\n        lastWinnerAt = now;\r\n        winnerMapping[msg.sender].guessedAt = now;\r\n\r\n        //Lec-71 Ex-3\r\n        winner = msg.sender;\r\n        winnerMapping[msg.sender].winnerAddress = msg.sender;\r\n        winnerMapping[msg.sender].guess = num;\r\n        winnerMapping[msg.sender].ethersReceived = msg.value;\r\n\r\n        //Lec-80 Ex-4 part 2-b\r\n        uint sendBack = 2 * msg.value;\r\n        // it is not a good practice to use transfer(), we'll look into a better alternative in later chapters\r\n        msg.sender.transfer(sendBack);\r\n\r\n        return true;\r\n      }\r\n    }\r\n    loserCount++;\r\n    return false;\r\n  }\r\n\r\n  // Ex-2 \r\n  function totalGuesses() public returns (uint){\r\n    return (loserCount+winnerCount);\r\n  }\r\n\r\n  // Ex-3\r\n  /**\r\n   * make a change to the 2_deploy_contracts.js\r\n   *   provide the 3 numbers to the constructor\r\n   * > testrpc\r\n   * > truffle migrate\r\n   * > trufle  networks\r\n   **/\r\n\r\n   function getLastWinner() returns (bytes){\r\n       bytes memory mLastWinner = new bytes(15);\r\n       bytes memory mLastWinner1 = new bytes(5);\r\n       mLastWinner = bytes(lastWinnerName);\r\n       if (mLastWinner.length == 0) {\r\n            return \"***\";\r\n       }\r\n\r\n       for (uint i=0; i < 3; i++) {\r\n            mLastWinner1[i] = mLastWinner[i]; \r\n        }\r\n\r\n        return mLastWinner1;\r\n   }\r\n\r\n   //Lec-71 Ex-3\r\n   function daysSinceLastWinning() public returns (uint) {\r\n       return (block.timestamp - lastWinnerAt*1 days);\r\n   }\r\n\r\n   //Lec-71 Ex-3\r\n   function hoursSinceLastWinning() public returns (uint) {\r\n       return (now - lastWinnerAt*1 hours);\r\n   }\r\n\r\n   //Lec-71 Ex-3\r\n   function minutesSinceLastWinning() public returns (uint) {\r\n       return (now - lastWinnerAt*1 minutes);\r\n   }\r\n\r\n   //Lec-73 Ex-2\r\n   function getLastWinnerInfo() returns (address winnerAddress, string name, uint guess, uint guessedAt, uint ethersReceived) {\r\n        winnerAddress = winnerMapping[msg.sender].winnerAddress;\r\n        name = winnerMapping[msg.sender].name;\r\n        guess = winnerMapping[msg.sender].guess;\r\n        guessedAt = winnerMapping[msg.sender].guessedAt;\r\n        ethersReceived = winnerMapping[msg.sender].ethersReceived;\r\n   }\r\n\r\n   // Lec-73 Ex-3\r\n   function checkWinning(address addr) returns (address winnerAddress, string name, uint guess, uint guessedAt) {\r\n       Winner memory winnerLocal = winnerMapping[addr];\r\n       if(winnerLocal.guessedAt != 0) {\r\n       winnerAddress = winnerLocal.winnerAddress;\r\n       name = winnerLocal.name;\r\n       guess = winnerLocal.guess;\r\n       guessedAt = winnerLocal.guessedAt;\r\n       }\r\n   }\r\n\r\n   //Lec-82 Ex-4\r\n   // the owner should be able to transfer the amount only if the balace after transfer leads to > 3*MAX_BET else revert\r\n   function ownerWithdraw(uint amount) OwnerOnly {\r\n       if((this.balance - amount) > 3*MAX_BET) {\r\n           msg.sender.transfer(amount);\r\n       } else {\r\n           revert();\r\n       }\r\n   }\r\n\r\n   //Lec-82 Ex-5\r\n   // payable fallback function for sending ethers to the contract without data\r\n   // if fallback function is not defined you wont be able to send or fund the ethers\r\n   function() public payable { \r\n       // fallback function does nothing\r\n   }\r\n}",
  "sourcePath": "C:\\inthra\\blockChain\\Demo-truffle\\contracts\\MultiNumberBettingV6.sol",
  "compiler": {
    "name": "solc",
    "version": "0.4.19+commit.c4cbbb05.Emscripten.clang"
  },
  "schemaVersion": "1.0.1",
  "updatedAt": "2018-03-14T22:18:19.384Z"
}