{
  "contractName": "SpecialArrays",
  "abi": [
    {
      "constant": false,
      "inputs": [],
      "name": "conversionTest",
      "outputs": [
        {
          "name": "",
          "type": "string"
        }
      ],
      "payable": false,
      "stateMutability": "nonpayable",
      "type": "function"
    },
    {
      "constant": false,
      "inputs": [
        {
          "name": "index",
          "type": "uint256"
        }
      ],
      "name": "getElementAt",
      "outputs": [
        {
          "name": "",
          "type": "bytes1"
        }
      ],
      "payable": false,
      "stateMutability": "nonpayable",
      "type": "function"
    },
    {
      "constant": false,
      "inputs": [],
      "name": "testAssignments",
      "outputs": [],
      "payable": false,
      "stateMutability": "nonpayable",
      "type": "function"
    }
  ],
  "bytecode": "0x60606040526040805190810160405280600581526020017f61626364650000000000000000000000000000000000000000000000000000008152506004908051906020019061004f929190610060565b50341561005b57600080fd5b610105565b828054600181600116156101000203166002900490600052602060002090601f016020900481019282601f106100a157805160ff19168380011785556100cf565b828001600101855582156100cf579182015b828111156100ce5782518255916020019190600101906100b3565b5b5090506100dc91906100e0565b5090565b61010291905b808211156100fe5760008160009055506001016100e6565b5090565b90565b610a20806101146000396000f300606060405260043610610057576000357c0100000000000000000000000000000000000000000000000000000000900463ffffffff16806392a336301461005c578063aaa2004a146100ea578063d8a865f6146100ff575b600080fd5b341561006757600080fd5b61006f61017a565b6040518080602001828103825283818151815260200191508051906020019080838360005b838110156100af578082015181840152602081019050610094565b50505050905090810190601f1680156100dc5780820380516001836020036101000a031916815260200191505b509250505060405180910390f35b34156100f557600080fd5b6100fd6101d5565b005b341561010a57600080fd5b6101206004808035906020019091905050610558565b60405180827effffffffffffffffffffffffffffffffffffffffffffffffffffffffffffff19167effffffffffffffffffffffffffffffffffffffffffffffffffffffffffffff1916815260200191505060405180910390f35b610182610666565b61018a61067a565b610192610666565b6040805190810160405280600f81526020017f48656c6c6f20736f6c69646974792100000000000000000000000000000000008152509150819050809250505090565b60036040518059106101e45750595b90808252806020026020018201604052506002908051906020019061020a92919061068e565b5060606040519081016040528060017f0100000000000000000000000000000000000000000000000000000000000000027effffffffffffffffffffffffffffffffffffffffffffffffffffffffffffff19167effffffffffffffffffffffffffffffffffffffffffffffffffffffffffffff1916815260200160027f0100000000000000000000000000000000000000000000000000000000000000027effffffffffffffffffffffffffffffffffffffffffffffffffffffffffffff1916815260200160037f0100000000000000000000000000000000000000000000000000000000000000027effffffffffffffffffffffffffffffffffffffffffffffffffffffffffffff19168152506002906003610328929190610755565b506005600281610338919061081c565b5060036040518059106103485750595b9080825280601f01601f191660200182016040525060039080519060200190610372929190610856565b5060017f0100000000000000000000000000000000000000000000000000000000000000026003600181546001816001161561010002031660029004811015156103b857fe5b8154600116156103d75790600052602060002090602091828204019190065b601f036101000a81548160ff021916907f01000000000000000000000000000000000000000000000000000000000000008404021790555060027f01000000000000000000000000000000000000000000000000000000000000000260036002815460018160011615610100020316600290048110151561045457fe5b8154600116156104735790600052602060002090602091828204019190065b601f036101000a81548160ff021916907f01000000000000000000000000000000000000000000000000000000000000008404021790555060037f01000000000000000000000000000000000000000000000000000000000000000260038081546001816001161561010002031660029004811015156104ef57fe5b81546001161561050e5790600052602060002090602091828204019190065b601f036101000a81548160ff021916907f010000000000000000000000000000000000000000000000000000000000000084040217905550600560038161055591906108d6565b50565b600061056261067a565b600060048054600181600116156101000203166002900480601f0160208091040260200160405190810160405280929190818152602001828054600181600116156101000203166002900480156105fa5780601f106105cf576101008083540402835291602001916105fa565b820191906000526020600020905b8154815290600101906020018083116105dd57829003601f168201915b50505050509150818481518110151561060f57fe5b9060200101517f010000000000000000000000000000000000000000000000000000000000000090047f01000000000000000000000000000000000000000000000000000000000000000290508092505050919050565b602060405190810160405280600081525090565b602060405190810160405280600081525090565b82805482825590600052602060002090601f016020900481019282156107445791602002820160005b8382111561071557835183826101000a81548160ff02191690837f01000000000000000000000000000000000000000000000000000000000000009004021790555092602001926001016020816000010492830192600103026106b7565b80156107425782816101000a81549060ff0219169055600101602081600001049283019260010302610715565b505b509050610751919061099f565b5090565b82805482825590600052602060002090601f0160209004810192821561080b5791602002820160005b838211156107dc57835183826101000a81548160ff02191690837f010000000000000000000000000000000000000000000000000000000000000090040217905550926020019260010160208160000104928301926001030261077e565b80156108095782816101000a81549060ff02191690556001016020816000010492830192600103026107dc565b505b509050610818919061099f565b5090565b81548183558181151161085157601f016020900481601f0160209004836000526020600020918201910161085091906109cf565b5b505050565b828054600181600116156101000203166002900490600052602060002090601f016020900481019282601f1061089757805160ff19168380011785556108c5565b828001600101855582156108c5579182015b828111156108c45782518255916020019190600101906108a9565b5b5090506108d291906109cf565b5090565b81546001816001161561010002031660029004825481601f106109315782601f10610916575b826008026101000360020a8091040282800117835561099a565b60ff191683600052602060002055818001600101835561099a565b82601f10610961575082600052602060002080549082601f016020900481019061095b91906109cf565b506108fc565b5081800160010183558181151161099a57601f016020900481601f0160209004836000526020600020918201910161099991906109cf565b5b505050565b6109cc91905b808211156109c857600081816101000a81549060ff0219169055506001016109a5565b5090565b90565b6109f191905b808211156109ed5760008160009055506001016109d5565b5090565b905600a165627a7a72305820007829771e8a0670439813703606efac4a9e70266db8ded003a9c9e1303de6580029",
  "source": "pragma solidity ^0.4.4;\r\n\r\ncontract SpecialArrays {\r\n    // create a fixed length bytes array with length as 3\r\n    byte[3] byteArray;\r\n    // create a fixed length bytes array with length as 3\r\n    bytes3 fixedBytesArray;\r\n\r\n    // both these statements declare a dynamic bytes array\r\n    byte[] dynamicBytesArray;\r\n    bytes bytesArray;\r\n\r\n    string stringStorage = \"abcde\";\r\n\r\n    function conversionTest() returns (string) {\r\n        bytes memory helloSolidity = \"Hello solidity!\";\r\n        string memory converted = string(helloSolidity);\r\n        return converted; \r\n    }\r\n\r\n    function getElementAt(uint index ) returns (byte){\r\n        bytes memory bytesData = bytes(stringStorage);\r\n\r\n        byte element = bytesData[index];\r\n\r\n        return  element;\r\n    }\r\n\r\n \r\n    function testAssignments() public {\r\n        // allocate memory of 3 byte elements\r\n        dynamicBytesArray = new byte[](3);\r\n        // assign 3 bytes after explicit conversion\r\n        dynamicBytesArray = [byte(1),2,3];\r\n\r\n        dynamicBytesArray.length = 5;\r\n\r\n        // allocate memory of 3 bytes\r\n        bytesArray = new bytes(3);\r\n        // Not allowed to assign to bytesArray\r\n        //bytesArray = [byte(1),2,3];\r\n        // index based assignment is allowed on bytes array\r\n        bytesArray[1] = 1;\r\n        bytesArray[2] = 2;\r\n        bytesArray[3] = 3;\r\n\r\n        bytesArray.length = 5;\r\n    }\r\n }",
  "sourcePath": "C:\\inthra\\blockChain\\Demo-truffle\\contracts\\SpecialArrays.sol",
  "compiler": {
    "name": "solc",
    "version": "0.4.19+commit.c4cbbb05.Emscripten.clang"
  },
  "schemaVersion": "1.0.1",
  "updatedAt": "2018-03-14T22:18:19.348Z"
}